{
  "contractName": "Library",
  "abi": [
    {
      "constant": true,
      "inputs": [
        {
          "name": "",
          "type": "uint256"
        }
      ],
      "name": "librarians",
      "outputs": [
        {
          "name": "libName",
          "type": "string"
        },
        {
          "name": "libAddress",
          "type": "address"
        }
      ],
      "payable": false,
      "stateMutability": "view",
      "type": "function"
    },
    {
      "constant": true,
      "inputs": [
        {
          "name": "",
          "type": "uint256"
        }
      ],
      "name": "allCurrentBooks",
      "outputs": [
        {
          "name": "bookName",
          "type": "string"
        },
        {
          "name": "bookOwner",
          "type": "address"
        }
      ],
      "payable": false,
      "stateMutability": "view",
      "type": "function"
    },
    {
      "constant": true,
      "inputs": [
        {
          "name": "",
          "type": "address"
        }
      ],
      "name": "mapLibrarian",
      "outputs": [
        {
          "name": "",
          "type": "bool"
        }
      ],
      "payable": false,
      "stateMutability": "view",
      "type": "function"
    },
    {
      "constant": true,
      "inputs": [],
      "name": "owner",
      "outputs": [
        {
          "name": "",
          "type": "address"
        }
      ],
      "payable": false,
      "stateMutability": "view",
      "type": "function"
    },
    {
      "inputs": [],
      "payable": false,
      "stateMutability": "nonpayable",
      "type": "constructor"
    },
    {
      "constant": false,
      "inputs": [
        {
          "name": "libName",
          "type": "string"
        },
        {
          "name": "libAddress",
          "type": "address"
        }
      ],
      "name": "addLibrarian",
      "outputs": [],
      "payable": false,
      "stateMutability": "nonpayable",
      "type": "function"
    },
    {
      "constant": false,
      "inputs": [
        {
          "name": "libAddress",
          "type": "address"
        }
      ],
      "name": "removeLibrarian",
      "outputs": [],
      "payable": false,
      "stateMutability": "nonpayable",
      "type": "function"
    },
    {
      "constant": false,
      "inputs": [
        {
          "name": "bookName",
          "type": "string"
        },
        {
          "name": "bookOwner",
          "type": "address"
        }
      ],
      "name": "addBook",
      "outputs": [],
      "payable": false,
      "stateMutability": "nonpayable",
      "type": "function"
    },
    {
      "constant": false,
      "inputs": [
        {
          "name": "bookName",
          "type": "string"
        },
        {
          "name": "bookOwner",
          "type": "address"
        }
      ],
      "name": "removeBook",
      "outputs": [],
      "payable": false,
      "stateMutability": "nonpayable",
      "type": "function"
    },
    {
      "constant": true,
      "inputs": [],
      "name": "showTotalBooks",
      "outputs": [
        {
          "name": "",
          "type": "uint256"
        }
      ],
      "payable": false,
      "stateMutability": "view",
      "type": "function"
    },
    {
      "constant": false,
      "inputs": [
        {
          "name": "bookName",
          "type": "string"
        }
      ],
      "name": "checkInBook",
      "outputs": [],
      "payable": false,
      "stateMutability": "nonpayable",
      "type": "function"
    },
    {
      "constant": false,
      "inputs": [
        {
          "name": "bookName",
          "type": "string"
        },
        {
          "name": "checkOutAddress",
          "type": "address"
        }
      ],
      "name": "checkOutBook",
      "outputs": [],
      "payable": false,
      "stateMutability": "nonpayable",
      "type": "function"
    },
    {
      "constant": false,
      "inputs": [
        {
          "name": "tradeInBook",
          "type": "string"
        },
        {
          "name": "tradeWithBook",
          "type": "string"
        },
        {
          "name": "newOwner",
          "type": "address"
        }
      ],
      "name": "tradeBook",
      "outputs": [],
      "payable": false,
      "stateMutability": "nonpayable",
      "type": "function"
    },
    {
      "constant": false,
      "inputs": [
        {
          "name": "bookName",
          "type": "string"
        },
        {
          "name": "data",
          "type": "bytes32"
        }
      ],
      "name": "addDamageRepairHistory",
      "outputs": [],
      "payable": false,
      "stateMutability": "nonpayable",
      "type": "function"
    },
    {
      "constant": true,
      "inputs": [
        {
          "name": "bookName",
          "type": "string"
        }
      ],
      "name": "showDamageRepairHistory",
      "outputs": [
        {
          "name": "",
          "type": "bytes32[]"
        }
      ],
      "payable": false,
      "stateMutability": "view",
      "type": "function"
    },
    {
      "constant": true,
      "inputs": [
        {
          "name": "bookName",
          "type": "string"
        }
      ],
      "name": "trackBookHistory",
      "outputs": [
        {
          "name": "",
          "type": "address[]"
        }
      ],
      "payable": false,
      "stateMutability": "view",
      "type": "function"
    }
  ],
  "bytecode": "0x608060405234801561001057600080fd5b5033600660006101000a81548173ffffffffffffffffffffffffffffffffffffffff021916908373ffffffffffffffffffffffffffffffffffffffff160217905550612fea806100616000396000f3006080604052600436106100db576000357c0100000000000000000000000000000000000000000000000000000000900463ffffffff16806313319d72146100e05780631613a2e2146101b95780631e6ec7ae146102425780632912d4151461031b5780633bc391f5146103a45780634605db0e1461040d57806349ebd3da146104965780636446d9601461050d578063786d7935146105685780638da5cb5b1461063757806396f7ec121461068e578063d22591c8146106b9578063d4a309ce14610742578063e8d5cb4014610800578063f4dac75d14610843575b600080fd5b3480156100ec57600080fd5b5061010b60048036038101908080359060200190929190505050610901565b60405180806020018373ffffffffffffffffffffffffffffffffffffffff1673ffffffffffffffffffffffffffffffffffffffff168152602001828103825284818151815260200191508051906020019080838360005b8381101561017d578082015181840152602081019050610162565b50505050905090810190601f1680156101aa5780820380516001836020036101000a031916815260200191505b50935050505060405180910390f35b3480156101c557600080fd5b50610240600480360381019080803590602001908201803590602001908080601f0160208091040260200160405190810160405280939291908181526020018383808284378201915050505050509192919290803573ffffffffffffffffffffffffffffffffffffffff1690602001909291905050506109ec565b005b34801561024e57600080fd5b5061026d60048036038101908080359060200190929190505050610ef6565b60405180806020018373ffffffffffffffffffffffffffffffffffffffff1673ffffffffffffffffffffffffffffffffffffffff168152602001828103825284818151815260200191508051906020019080838360005b838110156102df5780820151818401526020810190506102c4565b50505050905090810190601f16801561030c5780820380516001836020036101000a031916815260200191505b50935050505060405180910390f35b34801561032757600080fd5b506103a2600480360381019080803590602001908201803590602001908080601f0160208091040260200160405190810160405280939291908181526020018383808284378201915050505050509192919290803573ffffffffffffffffffffffffffffffffffffffff169060200190929190505050610fe1565b005b3480156103b057600080fd5b5061040b600480360381019080803590602001908201803590602001908080601f0160208091040260200160405190810160405280939291908181526020018383808284378201915050505050509192919290505050611164565b005b34801561041957600080fd5b50610494600480360381019080803590602001908201803590602001908080601f0160208091040260200160405190810160405280939291908181526020018383808284378201915050505050509192919290803573ffffffffffffffffffffffffffffffffffffffff169060200190929190505050611535565b005b3480156104a257600080fd5b5061050b600480360381019080803590602001908201803590602001908080601f0160208091040260200160405190810160405280939291908181526020018383808284378201915050505050509192919290803560001916906020019092919050505061180d565b005b34801561051957600080fd5b5061054e600480360381019080803573ffffffffffffffffffffffffffffffffffffffff16906020019092919050505061190e565b604051808215151515815260200191505060405180910390f35b34801561057457600080fd5b50610635600480360381019080803590602001908201803590602001908080601f0160208091040260200160405190810160405280939291908181526020018383808284378201915050505050509192919290803590602001908201803590602001908080601f0160208091040260200160405190810160405280939291908181526020018383808284378201915050505050509192919290803573ffffffffffffffffffffffffffffffffffffffff16906020019092919050505061192e565b005b34801561064357600080fd5b5061064c612029565b604051808273ffffffffffffffffffffffffffffffffffffffff1673ffffffffffffffffffffffffffffffffffffffff16815260200191505060405180910390f35b34801561069a57600080fd5b506106a361204f565b6040518082815260200191505060405180910390f35b3480156106c557600080fd5b50610740600480360381019080803590602001908201803590602001908080601f0160208091040260200160405190810160405280939291908181526020018383808284378201915050505050509192919290803573ffffffffffffffffffffffffffffffffffffffff16906020019092919050505061205c565b005b34801561074e57600080fd5b506107a9600480360381019080803590602001908201803590602001908080601f0160208091040260200160405190810160405280939291908181526020018383808284378201915050505050509192919290505050612616565b6040518080602001828103825283818151815260200191508051906020019060200280838360005b838110156107ec5780820151818401526020810190506107d1565b505050509050019250505060405180910390f35b34801561080c57600080fd5b50610841600480360381019080803573ffffffffffffffffffffffffffffffffffffffff1690602001909291905050506127a0565b005b34801561084f57600080fd5b506108aa600480360381019080803590602001908201803590602001908080601f0160208091040260200160405190810160405280939291908181526020018383808284378201915050505050509192919290505050612a96565b6040518080602001828103825283818151815260200191508051906020019060200280838360005b838110156108ed5780820151818401526020810190506108d2565b505050509050019250505060405180910390f35b60008181548110151561091057fe5b9060005260206000209060020201600091509050806000018054600181600116156101000203166002900480601f0160208091040260200160405190810160405280929190818152602001828054600181600116156101000203166002900480156109bc5780601f10610991576101008083540402835291602001916109bc565b820191906000526020600020905b81548152906001019060200180831161099f57829003601f168201915b5050505050908060010160009054906101000a900473ffffffffffffffffffffffffffffffffffffffff16905082565b600060011515600560003373ffffffffffffffffffffffffffffffffffffffff1673ffffffffffffffffffffffffffffffffffffffff16815260200190815260200160002060009054906101000a900460ff161515141515610a4d57600080fd5b600115156004846040518082805190602001908083835b602083101515610a895780518252602082019150602081019050602083039250610a64565b6001836020036101000a038019825116818451168082178552505050505050905001915050908152602001604051809103902060020160009054906101000a900460ff161515141515610adb57600080fd5b600115156003846040518082805190602001908083835b602083101515610b175780518252602082019150602081019050602083039250610af2565b6001836020036101000a038019825116818451168082178552505050505050905001915050908152602001604051809103902060010160149054906101000a900460ff161515141515610b6957600080fd5b60006003846040518082805190602001908083835b602083101515610ba35780518252602082019150602081019050602083039250610b7e565b6001836020036101000a038019825116818451168082178552505050505050905001915050908152602001604051809103902060010160146101000a81548160ff02191690831515021790555060006004846040518082805190602001908083835b602083101515610c2a5780518252602082019150602081019050602083039250610c05565b6001836020036101000a038019825116818451168082178552505050505050905001915050908152602001604051809103902060020160006101000a81548160ff02191690831515021790555060006003846040518082805190602001908083835b602083101515610cb15780518252602082019150602081019050602083039250610c8c565b6001836020036101000a038019825116818451168082178552505050505050905001915050908152602001604051809103902060010160156101000a81548160ff021916908315150217905550600090505b600280549050811015610ef1578173ffffffffffffffffffffffffffffffffffffffff16600282815481101515610d3657fe5b906000526020600020906002020160010160009054906101000a900473ffffffffffffffffffffffffffffffffffffffff1673ffffffffffffffffffffffffffffffffffffffff161415610ee4576002600160028054905003815481101515610d9b57fe5b9060005260206000209060020201600282815481101515610db857fe5b906000526020600020906002020160008201816000019080546001816001161561010002031660029004610ded929190612bbf565b506001820160009054906101000a900473ffffffffffffffffffffffffffffffffffffffff168160010160006101000a81548173ffffffffffffffffffffffffffffffffffffffff021916908373ffffffffffffffffffffffffffffffffffffffff1602179055509050506002600160028054905003815481101515610e6f57fe5b906000526020600020906002020160008082016000610e8e9190612c46565b6001820160006101000a81549073ffffffffffffffffffffffffffffffffffffffff021916905550506002805480919060019003610ecc9190612c8e565b506001805480919060019003610ee29190612cc0565b505b8080600101915050610d03565b505050565b600281815481101515610f0557fe5b9060005260206000209060020201600091509050806000018054600181600116156101000203166002900480601f016020809104026020016040519081016040528092919081815260200182805460018160011615610100020316600290048015610fb15780601f10610f8657610100808354040283529160200191610fb1565b820191906000526020600020905b815481529060010190602001808311610f9457829003601f168201915b5050505050908060010160009054906101000a900473ffffffffffffffffffffffffffffffffffffffff16905082565b610fe9612cec565b600660009054906101000a900473ffffffffffffffffffffffffffffffffffffffff1673ffffffffffffffffffffffffffffffffffffffff163373ffffffffffffffffffffffffffffffffffffffff1614151561104557600080fd5b60408051908101604052808481526020018373ffffffffffffffffffffffffffffffffffffffff1681525090506000819080600181540180825580915050906001820390600052602060002090600202016000909192909190915060008201518160000190805190602001906110bc929190612d1c565b5060208201518160010160006101000a81548173ffffffffffffffffffffffffffffffffffffffff021916908373ffffffffffffffffffffffffffffffffffffffff1602179055505050506001600560008473ffffffffffffffffffffffffffffffffffffffff1673ffffffffffffffffffffffffffffffffffffffff16815260200190815260200160002060006101000a81548160ff021916908315150217905550505050565b6000600115156004836040518082805190602001908083835b6020831015156111a2578051825260208201915060208101905060208303925061117d565b6001836020036101000a038019825116818451168082178552505050505050905001915050908152602001604051809103902060020160009054906101000a900460ff1615151415156111f457600080fd5b600015156003836040518082805190602001908083835b602083101515611230578051825260208201915060208101905060208303925061120b565b6001836020036101000a038019825116818451168082178552505050505050905001915050908152602001604051809103902060010160149054906101000a900460ff16151514151561128257600080fd5b6004826040518082805190602001908083835b6020831015156112ba5780518252602082019150602081019050602083039250611295565b6001836020036101000a03801982511681845116808217855250505050505090500191505090815260200160405180910390206001018054905090503373ffffffffffffffffffffffffffffffffffffffff166004836040518082805190602001908083835b6020831015156113455780518252602082019150602081019050602083039250611320565b6001836020036101000a03801982511681845116808217855250505050505090500191505090815260200160405180910390206001016001830381548110151561138b57fe5b9060005260206000200160009054906101000a900473ffffffffffffffffffffffffffffffffffffffff1673ffffffffffffffffffffffffffffffffffffffff161415156113d857600080fd5b6004826040518082805190602001908083835b60208310151561141057805182526020820191506020810190506020830392506113eb565b6001836020036101000a03801982511681845116808217855250505050505090500191505090815260200160405180910390206001013390806001815401808255809150509060018203906000526020600020016000909192909190916101000a81548173ffffffffffffffffffffffffffffffffffffffff021916908373ffffffffffffffffffffffffffffffffffffffff1602179055505060016003836040518082805190602001908083835b6020831015156114e457805182526020820191506020810190506020830392506114bf565b6001836020036101000a038019825116818451168082178552505050505050905001915050908152602001604051809103902060010160146101000a81548160ff0219169083151502179055505050565b60011515600560003373ffffffffffffffffffffffffffffffffffffffff1673ffffffffffffffffffffffffffffffffffffffff16815260200190815260200160002060009054906101000a900460ff16151514151561159457600080fd5b600115156004836040518082805190602001908083835b6020831015156115d057805182526020820191506020810190506020830392506115ab565b6001836020036101000a038019825116818451168082178552505050505050905001915050908152602001604051809103902060020160009054906101000a900460ff16151514151561162257600080fd5b600115156003836040518082805190602001908083835b60208310151561165e5780518252602082019150602081019050602083039250611639565b6001836020036101000a038019825116818451168082178552505050505050905001915050908152602001604051809103902060010160149054906101000a900460ff1615151415156116b057600080fd5b6004826040518082805190602001908083835b6020831015156116e857805182526020820191506020810190506020830392506116c3565b6001836020036101000a03801982511681845116808217855250505050505090500191505090815260200160405180910390206001018190806001815401808255809150509060018203906000526020600020016000909192909190916101000a81548173ffffffffffffffffffffffffffffffffffffffff021916908373ffffffffffffffffffffffffffffffffffffffff1602179055505060006003836040518082805190602001908083835b6020831015156117bc5780518252602082019150602081019050602083039250611797565b6001836020036101000a038019825116818451168082178552505050505050905001915050908152602001604051809103902060010160146101000a81548160ff0219169083151502179055505050565b60011515600560003373ffffffffffffffffffffffffffffffffffffffff1673ffffffffffffffffffffffffffffffffffffffff16815260200190815260200160002060009054906101000a900460ff16151514151561186c57600080fd5b6004826040518082805190602001908083835b6020831015156118a4578051825260208201915060208101905060208303925061187f565b6001836020036101000a03801982511681845116808217855250505050505090500191505090815260200160405180910390206003018190806001815401808255809150509060018203906000526020600020016000909192909190915090600019169055505050565b60056020528060005260406000206000915054906101000a900460ff1681565b3373ffffffffffffffffffffffffffffffffffffffff166003846040518082805190602001908083835b60208310151561197d5780518252602082019150602081019050602083039250611958565b6001836020036101000a038019825116818451168082178552505050505050905001915050908152602001604051809103902060010160009054906101000a900473ffffffffffffffffffffffffffffffffffffffff1673ffffffffffffffffffffffffffffffffffffffff161415156119f657600080fd5b600115156003846040518082805190602001908083835b602083101515611a325780518252602082019150602081019050602083039250611a0d565b6001836020036101000a038019825116818451168082178552505050505050905001915050908152602001604051809103902060010160149054906101000a900460ff161515141515611a8457600080fd5b600115156003836040518082805190602001908083835b602083101515611ac05780518252602082019150602081019050602083039250611a9b565b6001836020036101000a038019825116818451168082178552505050505050905001915050908152602001604051809103902060010160149054906101000a900460ff161515141515611b1257600080fd5b806003846040518082805190602001908083835b602083101515611b4b5780518252602082019150602081019050602083039250611b26565b6001836020036101000a038019825116818451168082178552505050505050905001915050908152602001604051809103902060010160006101000a81548173ffffffffffffffffffffffffffffffffffffffff021916908373ffffffffffffffffffffffffffffffffffffffff160217905550336003836040518082805190602001908083835b602083101515611bf85780518252602082019150602081019050602083039250611bd3565b6001836020036101000a038019825116818451168082178552505050505050905001915050908152602001604051809103902060010160006101000a81548173ffffffffffffffffffffffffffffffffffffffff021916908373ffffffffffffffffffffffffffffffffffffffff160217905550826004846040518082805190602001908083835b602083101515611ca55780518252602082019150602081019050602083039250611c80565b6001836020036101000a03801982511681845116808217855250505050505090500191505090815260200160405180910390206000019080519060200190611cee929190612d9c565b506004836040518082805190602001908083835b602083101515611d275780518252602082019150602081019050602083039250611d02565b6001836020036101000a03801982511681845116808217855250505050505090500191505090815260200160405180910390206001018190806001815401808255809150509060018203906000526020600020016000909192909190916101000a81548173ffffffffffffffffffffffffffffffffffffffff021916908373ffffffffffffffffffffffffffffffffffffffff1602179055505060016004846040518082805190602001908083835b602083101515611dfb5780518252602082019150602081019050602083039250611dd6565b6001836020036101000a038019825116818451168082178552505050505050905001915050908152602001604051809103902060020160006101000a81548160ff021916908315150217905550826004836040518082805190602001908083835b602083101515611e815780518252602082019150602081019050602083039250611e5c565b6001836020036101000a03801982511681845116808217855250505050505090500191505090815260200160405180910390206000019080519060200190611eca929190612d9c565b506004826040518082805190602001908083835b602083101515611f035780518252602082019150602081019050602083039250611ede565b6001836020036101000a03801982511681845116808217855250505050505090500191505090815260200160405180910390206001013390806001815401808255809150509060018203906000526020600020016000909192909190916101000a81548173ffffffffffffffffffffffffffffffffffffffff021916908373ffffffffffffffffffffffffffffffffffffffff1602179055505060016004846040518082805190602001908083835b602083101515611fd75780518252602082019150602081019050602083039250611fb2565b6001836020036101000a038019825116818451168082178552505050505050905001915050908152602001604051809103902060020160006101000a81548160ff021916908315150217905550505050565b600660009054906101000a900473ffffffffffffffffffffffffffffffffffffffff1681565b6000600180549050905090565b612064612e1c565b61206c612e5f565b60011515600560003373ffffffffffffffffffffffffffffffffffffffff1673ffffffffffffffffffffffffffffffffffffffff16815260200190815260200160002060009054906101000a900460ff1615151415156120cb57600080fd5b600015156004856040518082805190602001908083835b60208310151561210757805182526020820191506020810190506020830392506120e2565b6001836020036101000a038019825116818451168082178552505050505050905001915050908152602001604051809103902060020160009054906101000a900460ff16151514151561215957600080fd5b6080604051908101604052808581526020018473ffffffffffffffffffffffffffffffffffffffff16815260200160011515815260200160011515815250915060408051908101604052808581526020018473ffffffffffffffffffffffffffffffffffffffff168152509050816003856040518082805190602001908083835b6020831015156121ff57805182526020820191506020810190506020830392506121da565b6001836020036101000a0380198251168184511680821785525050505050509050019150509081526020016040518091039020600082015181600001908051906020019061224e929190612d1c565b5060208201518160010160006101000a81548173ffffffffffffffffffffffffffffffffffffffff021916908373ffffffffffffffffffffffffffffffffffffffff16021790555060408201518160010160146101000a81548160ff02191690831515021790555060608201518160010160156101000a81548160ff021916908315150217905550905050836004856040518082805190602001908083835b60208310151561231257805182526020820191506020810190506020830392506122ed565b6001836020036101000a0380198251168184511680821785525050505050509050019150509081526020016040518091039020600001908051906020019061235b929190612d9c565b506004846040518082805190602001908083835b602083101515612394578051825260208201915060208101905060208303925061236f565b6001836020036101000a03801982511681845116808217855250505050505090500191505090815260200160405180910390206001018390806001815401808255809150509060018203906000526020600020016000909192909190916101000a81548173ffffffffffffffffffffffffffffffffffffffff021916908373ffffffffffffffffffffffffffffffffffffffff1602179055505060016004856040518082805190602001908083835b6020831015156124685780518252602082019150602081019050602083039250612443565b6001836020036101000a038019825116818451168082178552505050505050905001915050908152602001604051809103902060020160006101000a81548160ff02191690831515021790555060006003856040518082805190602001908083835b6020831015156124ef57805182526020820191506020810190506020830392506124ca565b6001836020036101000a038019825116818451168082178552505050505050905001915050908152602001604051809103902060010160156101000a81548160ff0219169083151502179055506001849080600181540180825580915050906001820390600052602060002001600090919290919091509080519060200190612579929190612d9c565b50506002819080600181540180825580915050906001820390600052602060002090600202016000909192909190915060008201518160000190805190602001906125c5929190612d1c565b5060208201518160010160006101000a81548173ffffffffffffffffffffffffffffffffffffffff021916908373ffffffffffffffffffffffffffffffffffffffff16021790555050505050505050565b6060600115156004836040518082805190602001908083835b602083101515612654578051825260208201915060208101905060208303925061262f565b6001836020036101000a038019825116818451168082178552505050505050905001915050908152602001604051809103902060020160009054906101000a900460ff1615151415156126a657600080fd5b6004826040518082805190602001908083835b6020831015156126de57805182526020820191506020810190506020830392506126b9565b6001836020036101000a038019825116818451168082178552505050505050905001915050908152602001604051809103902060010180548060200260200160405190810160405280929190818152602001828054801561279457602002820191906000526020600020905b8160009054906101000a900473ffffffffffffffffffffffffffffffffffffffff1673ffffffffffffffffffffffffffffffffffffffff168152602001906001019080831161274a575b50505050509050919050565b6000600660009054906101000a900473ffffffffffffffffffffffffffffffffffffffff1673ffffffffffffffffffffffffffffffffffffffff163373ffffffffffffffffffffffffffffffffffffffff161415156127fe57600080fd5b60011515600560008473ffffffffffffffffffffffffffffffffffffffff1673ffffffffffffffffffffffffffffffffffffffff16815260200190815260200160002060009054906101000a900460ff16151514151561285d57600080fd5b6000600560008473ffffffffffffffffffffffffffffffffffffffff1673ffffffffffffffffffffffffffffffffffffffff16815260200190815260200160002060006101000a81548160ff021916908315150217905550600090505b600080549050811015612a92578173ffffffffffffffffffffffffffffffffffffffff166000828154811015156128ed57fe5b906000526020600020906002020160010160009054906101000a900473ffffffffffffffffffffffffffffffffffffffff1673ffffffffffffffffffffffffffffffffffffffff161415612a8557600060016000805490500381548110151561295257fe5b906000526020600020906002020160008281548110151561296f57fe5b9060005260206000209060020201600082018160000190805460018160011615610100020316600290046129a4929190612bbf565b506001820160009054906101000a900473ffffffffffffffffffffffffffffffffffffffff168160010160006101000a81548173ffffffffffffffffffffffffffffffffffffffff021916908373ffffffffffffffffffffffffffffffffffffffff1602179055509050506000600160008054905003815481101515612a2657fe5b906000526020600020906002020160008082016000612a459190612c46565b6001820160006101000a81549073ffffffffffffffffffffffffffffffffffffffff021916905550506000805480919060019003612a839190612e8f565b505b80806001019150506128ba565b5050565b606060011515600560003373ffffffffffffffffffffffffffffffffffffffff1673ffffffffffffffffffffffffffffffffffffffff16815260200190815260200160002060009054906101000a900460ff161515141515612af757600080fd5b6004826040518082805190602001908083835b602083101515612b2f5780518252602082019150602081019050602083039250612b0a565b6001836020036101000a0380198251168184511680821785525050505050509050019150509081526020016040518091039020600301805480602002602001604051908101604052809291908181526020018280548015612bb357602002820191906000526020600020905b81546000191681526020019060010190808311612b9b575b50505050509050919050565b828054600181600116156101000203166002900490600052602060002090601f016020900481019282601f10612bf85780548555612c35565b82800160010185558215612c3557600052602060002091601f016020900482015b82811115612c34578254825591600101919060010190612c19565b5b509050612c429190612ec1565b5090565b50805460018160011615610100020316600290046000825580601f10612c6c5750612c8b565b601f016020900490600052602060002090810190612c8a9190612ec1565b5b50565b815481835581811115612cbb57600202816002028360005260206000209182019101612cba9190612ee6565b5b505050565b815481835581811115612ce757818360005260206000209182019101612ce69190612f3c565b5b505050565b604080519081016040528060608152602001600073ffffffffffffffffffffffffffffffffffffffff1681525090565b828054600181600116156101000203166002900490600052602060002090601f016020900481019282601f10612d5d57805160ff1916838001178555612d8b565b82800160010185558215612d8b579182015b82811115612d8a578251825591602001919060010190612d6f565b5b509050612d989190612ec1565b5090565b828054600181600116156101000203166002900490600052602060002090601f016020900481019282601f10612ddd57805160ff1916838001178555612e0b565b82800160010185558215612e0b579182015b82811115612e0a578251825591602001919060010190612def565b5b509050612e189190612ec1565b5090565b60806040519081016040528060608152602001600073ffffffffffffffffffffffffffffffffffffffff1681526020016000151581526020016000151581525090565b604080519081016040528060608152602001600073ffffffffffffffffffffffffffffffffffffffff1681525090565b815481835581811115612ebc57600202816002028360005260206000209182019101612ebb9190612f68565b5b505050565b612ee391905b80821115612edf576000816000905550600101612ec7565b5090565b90565b612f3991905b80821115612f355760008082016000612f059190612c46565b6001820160006101000a81549073ffffffffffffffffffffffffffffffffffffffff021916905550600201612eec565b5090565b90565b612f6591905b80821115612f615760008181612f589190612c46565b50600101612f42565b5090565b90565b612fbb91905b80821115612fb75760008082016000612f879190612c46565b6001820160006101000a81549073ffffffffffffffffffffffffffffffffffffffff021916905550600201612f6e565b5090565b905600a165627a7a723058200b25edef3de4d4f42c8e4d92151eecca83a3d0cc70039a938610919b442f4e830029",
  "source": "pragma solidity ^0.4.23;\n//pragma experimental ABIEncoderV2;\n\ncontract Library {\n\n    struct Librarian {\n        string libName;\n        address libAddress;\n    }\n\n    struct Book {\n        string bookName;\n        address bookOwner;\n        bool checkedIn;\n        bool exists;\n    }\n\n    struct AllCurrentBooks {\n      string bookName;\n      address bookOwner;\n    }\n\n\n    struct BookHistory {\n        string name;\n        address [] adr;\n        bool validBook;\n        bytes32 [] damageRepair;\n    }\n\n\n   Librarian[] public librarians;\n   string [] totalBooks;\n   AllCurrentBooks [] public allCurrentBooks;\n\n   mapping(string => Book) books;\n   mapping(string => BookHistory) bookHistory;\n   mapping (address => bool) public mapLibrarian;\n\n   address public owner;\n\n    constructor () public {\n        owner = msg.sender;\n    }\n\n\n    function addLibrarian (string libName, address libAddress) public {\n        require(msg.sender == owner);\n        Librarian memory newLibrarian = Librarian({\n           libName: libName,\n           libAddress: libAddress\n        });\n\n        librarians.push(newLibrarian);\n        mapLibrarian[libAddress] = true;\n    }\n\n    function removeLibrarian(address libAddress) public {\n        require(msg.sender == owner);\n        require(mapLibrarian[libAddress] == true);\n        mapLibrarian[libAddress] = false;\n        for(uint i=0; i<librarians.length; i++) {\n            if(librarians[i].libAddress == libAddress) {\n                librarians[i] = librarians[librarians.length-1];\n                delete librarians[librarians.length-1];\n                librarians.length--;\n            }\n        }\n    }\n\n    function addBook(string bookName, address bookOwner) public {\n        require(mapLibrarian[msg.sender] == true);\n        require(bookHistory[bookName].validBook == false);\n        Book memory newBook = Book({\n            bookName: bookName,\n            bookOwner: bookOwner,\n            checkedIn: true,\n            exists: true\n        });\n        AllCurrentBooks memory bookN = AllCurrentBooks({\n          bookName: bookName,\n          bookOwner: bookOwner\n          });\n        books[bookName] = newBook;\n        bookHistory[bookName].name = bookName;\n        bookHistory[bookName].adr.push(bookOwner);\n        bookHistory[bookName].validBook = true;\n        books[bookName].exists = false;\n        totalBooks.push(bookName);\n        allCurrentBooks.push(bookN);\n    }\n\n    function removeBook(string bookName, address bookOwner) public {\n         require(mapLibrarian[msg.sender] == true);\n         require(bookHistory[bookName].validBook == true);\n         require(books[bookName].checkedIn == true);\n          books[bookName].checkedIn = false;\n          bookHistory[bookName].validBook = false;\n          books[bookName].exists = false;\n         for(uint i=0; i<allCurrentBooks.length; i++) {\n              if(allCurrentBooks[i].bookOwner == bookOwner) {\n                  allCurrentBooks[i] = allCurrentBooks[allCurrentBooks.length-1];\n                  delete allCurrentBooks[allCurrentBooks.length-1];\n                  allCurrentBooks.length--;\n                  totalBooks.length--;\n              }\n          }\n      }\n\n  function showTotalBooks() public view returns (uint) {\n      return totalBooks.length;\n   }\n\n    function checkInBook(string bookName) public {\n        require(bookHistory[bookName].validBook == true);\n        require(books[bookName].checkedIn == false);\n        uint length = bookHistory[bookName].adr.length;\n        require(bookHistory[bookName].adr[length - 1] == msg.sender);\n        bookHistory[bookName].adr.push(msg.sender);\n        books[bookName].checkedIn = true;\n    }\n\n    function checkOutBook(string bookName, address checkOutAddress) public {\n        require(mapLibrarian[msg.sender] == true);\n        require(bookHistory[bookName].validBook == true);\n        require(books[bookName].checkedIn == true);\n        bookHistory[bookName].adr.push(checkOutAddress);\n        books[bookName].checkedIn = false;\n\n    }\n\n    function tradeBook(string tradeInBook, string tradeWithBook, address newOwner) public {\n        require(books[tradeInBook].bookOwner == msg.sender);\n        require(books[tradeInBook].checkedIn == true);\n        require(books[tradeWithBook].checkedIn == true);\n        books[tradeInBook].bookOwner = newOwner;\n        books[tradeWithBook].bookOwner = msg.sender;\n        bookHistory[tradeInBook].name = tradeInBook;\n        bookHistory[tradeInBook].adr.push(newOwner);\n        bookHistory[tradeInBook].validBook = true;\n        bookHistory[tradeWithBook].name = tradeInBook;\n        bookHistory[tradeWithBook].adr.push(msg.sender);\n        bookHistory[tradeInBook].validBook = true;\n    }\n\n     function addDamageRepairHistory (string bookName, bytes32 data) public {\n        require(mapLibrarian[msg.sender] == true);\n        bookHistory[bookName].damageRepair.push(data);\n    }\n\n    function showDamageRepairHistory (string bookName) public view returns (bytes32 []) {\n        require(mapLibrarian[msg.sender] == true);\n        return bookHistory[bookName].damageRepair;\n    }\n\n    function trackBookHistory(string bookName) public view returns (address []) {\n\n        require(bookHistory[bookName].validBook == true);\n        return bookHistory[bookName].adr;\n\n    }\n\n}\n",
  "sourcePath": "/Users/Rwc/Desktop/Rachna Programming/solidity/library/contracts/Library.sol",
  "compiler": {
    "name": "solc",
    "version": "0.4.23+commit.124ca40d.Emscripten.clang"
  },
  "schemaVersion": "2.0.0",
  "updatedAt": "2018-09-04T03:04:30.044Z"
}