{
  "contractName": "Library",
  "abi": [
    {
      "constant": true,
      "inputs": [
        {
          "name": "",
          "type": "uint256"
        }
      ],
      "name": "librarians",
      "outputs": [
        {
          "name": "libName",
          "type": "string"
        },
        {
          "name": "libAddress",
          "type": "address"
        }
      ],
      "payable": false,
      "stateMutability": "view",
      "type": "function"
    },
    {
      "constant": true,
      "inputs": [
        {
          "name": "",
          "type": "uint256"
        }
      ],
      "name": "allCurrentBooks",
      "outputs": [
        {
          "name": "bookName",
          "type": "string"
        },
        {
          "name": "bookOwner",
          "type": "address"
        }
      ],
      "payable": false,
      "stateMutability": "view",
      "type": "function"
    },
    {
      "constant": true,
      "inputs": [
        {
          "name": "",
          "type": "address"
        }
      ],
      "name": "mapLibrarian",
      "outputs": [
        {
          "name": "",
          "type": "bool"
        }
      ],
      "payable": false,
      "stateMutability": "view",
      "type": "function"
    },
    {
      "constant": true,
      "inputs": [],
      "name": "owner",
      "outputs": [
        {
          "name": "",
          "type": "address"
        }
      ],
      "payable": false,
      "stateMutability": "view",
      "type": "function"
    },
    {
      "inputs": [],
      "payable": false,
      "stateMutability": "nonpayable",
      "type": "constructor"
    },
    {
      "constant": false,
      "inputs": [
        {
          "name": "libName",
          "type": "string"
        },
        {
          "name": "libAddress",
          "type": "address"
        }
      ],
      "name": "addLibrarian",
      "outputs": [],
      "payable": false,
      "stateMutability": "nonpayable",
      "type": "function"
    },
    {
      "constant": false,
      "inputs": [
        {
          "name": "libAddress",
          "type": "address"
        }
      ],
      "name": "removeLibrarian",
      "outputs": [],
      "payable": false,
      "stateMutability": "nonpayable",
      "type": "function"
    },
    {
      "constant": false,
      "inputs": [
        {
          "name": "bookName",
          "type": "string"
        },
        {
          "name": "bookOwner",
          "type": "address"
        }
      ],
      "name": "addBook",
      "outputs": [],
      "payable": false,
      "stateMutability": "nonpayable",
      "type": "function"
    },
    {
      "constant": false,
      "inputs": [
        {
          "name": "bookName",
          "type": "string"
        },
        {
          "name": "bookOwner",
          "type": "address"
        }
      ],
      "name": "removeBook",
      "outputs": [],
      "payable": false,
      "stateMutability": "nonpayable",
      "type": "function"
    },
    {
      "constant": true,
      "inputs": [],
      "name": "showTotalBooks",
      "outputs": [
        {
          "name": "",
          "type": "uint256"
        }
      ],
      "payable": false,
      "stateMutability": "view",
      "type": "function"
    },
    {
      "constant": false,
      "inputs": [
        {
          "name": "bookName",
          "type": "string"
        }
      ],
      "name": "checkInBook",
      "outputs": [],
      "payable": false,
      "stateMutability": "nonpayable",
      "type": "function"
    },
    {
      "constant": false,
      "inputs": [
        {
          "name": "bookName",
          "type": "string"
        },
        {
          "name": "checkOutAddress",
          "type": "address"
        }
      ],
      "name": "checkOutBook",
      "outputs": [],
      "payable": false,
      "stateMutability": "nonpayable",
      "type": "function"
    },
    {
      "constant": false,
      "inputs": [
        {
          "name": "tradeInBook",
          "type": "string"
        },
        {
          "name": "tradeWithBook",
          "type": "string"
        },
        {
          "name": "newOwner",
          "type": "address"
        }
      ],
      "name": "tradeBook",
      "outputs": [],
      "payable": false,
      "stateMutability": "nonpayable",
      "type": "function"
    },
    {
      "constant": false,
      "inputs": [
        {
          "name": "bookName",
          "type": "string"
        },
        {
          "name": "data",
          "type": "bytes32"
        }
      ],
      "name": "addDamageRepairHistory",
      "outputs": [],
      "payable": false,
      "stateMutability": "nonpayable",
      "type": "function"
    },
    {
      "constant": true,
      "inputs": [
        {
          "name": "bookName",
          "type": "string"
        }
      ],
      "name": "showDamageRepairHistory",
      "outputs": [
        {
          "name": "",
          "type": "bytes32[]"
        }
      ],
      "payable": false,
      "stateMutability": "view",
      "type": "function"
    },
    {
      "constant": true,
      "inputs": [
        {
          "name": "bookName",
          "type": "string"
        }
      ],
      "name": "trackBookHistory",
      "outputs": [
        {
          "name": "",
          "type": "address[]"
        }
      ],
      "payable": false,
      "stateMutability": "view",
      "type": "function"
    }
  ],
  "bytecode": "0x608060405234801561001057600080fd5b5033600660006101000a81548173ffffffffffffffffffffffffffffffffffffffff021916908373ffffffffffffffffffffffffffffffffffffffff160217905550612f7c806100616000396000f3006080604052600436106100db576000357c0100000000000000000000000000000000000000000000000000000000900463ffffffff16806313319d72146100e05780631613a2e2146101b95780631e6ec7ae146102425780632912d4151461031b5780633bc391f5146103a45780634605db0e1461040d57806349ebd3da146104965780636446d9601461050d578063786d7935146105685780638da5cb5b1461063757806396f7ec121461068e578063d22591c8146106b9578063d4a309ce14610742578063e8d5cb4014610800578063f4dac75d14610843575b600080fd5b3480156100ec57600080fd5b5061010b60048036038101908080359060200190929190505050610901565b60405180806020018373ffffffffffffffffffffffffffffffffffffffff1673ffffffffffffffffffffffffffffffffffffffff168152602001828103825284818151815260200191508051906020019080838360005b8381101561017d578082015181840152602081019050610162565b50505050905090810190601f1680156101aa5780820380516001836020036101000a031916815260200191505b50935050505060405180910390f35b3480156101c557600080fd5b50610240600480360381019080803590602001908201803590602001908080601f0160208091040260200160405190810160405280939291908181526020018383808284378201915050505050509192919290803573ffffffffffffffffffffffffffffffffffffffff1690602001909291905050506109ec565b005b34801561024e57600080fd5b5061026d60048036038101908080359060200190929190505050610ee0565b60405180806020018373ffffffffffffffffffffffffffffffffffffffff1673ffffffffffffffffffffffffffffffffffffffff168152602001828103825284818151815260200191508051906020019080838360005b838110156102df5780820151818401526020810190506102c4565b50505050905090810190601f16801561030c5780820380516001836020036101000a031916815260200191505b50935050505060405180910390f35b34801561032757600080fd5b506103a2600480360381019080803590602001908201803590602001908080601f0160208091040260200160405190810160405280939291908181526020018383808284378201915050505050509192919290803573ffffffffffffffffffffffffffffffffffffffff169060200190929190505050610fcb565b005b3480156103b057600080fd5b5061040b600480360381019080803590602001908201803590602001908080601f016020809104026020016040519081016040528093929190818152602001838380828437820191505050505050919291929050505061114e565b005b34801561041957600080fd5b50610494600480360381019080803590602001908201803590602001908080601f0160208091040260200160405190810160405280939291908181526020018383808284378201915050505050509192919290803573ffffffffffffffffffffffffffffffffffffffff16906020019092919050505061151f565b005b3480156104a257600080fd5b5061050b600480360381019080803590602001908201803590602001908080601f016020809104026020016040519081016040528093929190818152602001838380828437820191505050505050919291929080356000191690602001909291905050506117f7565b005b34801561051957600080fd5b5061054e600480360381019080803573ffffffffffffffffffffffffffffffffffffffff1690602001909291905050506118f8565b604051808215151515815260200191505060405180910390f35b34801561057457600080fd5b50610635600480360381019080803590602001908201803590602001908080601f0160208091040260200160405190810160405280939291908181526020018383808284378201915050505050509192919290803590602001908201803590602001908080601f0160208091040260200160405190810160405280939291908181526020018383808284378201915050505050509192919290803573ffffffffffffffffffffffffffffffffffffffff169060200190929190505050611918565b005b34801561064357600080fd5b5061064c612013565b604051808273ffffffffffffffffffffffffffffffffffffffff1673ffffffffffffffffffffffffffffffffffffffff16815260200191505060405180910390f35b34801561069a57600080fd5b506106a3612039565b6040518082815260200191505060405180910390f35b3480156106c557600080fd5b50610740600480360381019080803590602001908201803590602001908080601f0160208091040260200160405190810160405280939291908181526020018383808284378201915050505050509192919290803573ffffffffffffffffffffffffffffffffffffffff169060200190929190505050612046565b005b34801561074e57600080fd5b506107a9600480360381019080803590602001908201803590602001908080601f0160208091040260200160405190810160405280939291908181526020018383808284378201915050505050509192919290505050612600565b6040518080602001828103825283818151815260200191508051906020019060200280838360005b838110156107ec5780820151818401526020810190506107d1565b505050509050019250505060405180910390f35b34801561080c57600080fd5b50610841600480360381019080803573ffffffffffffffffffffffffffffffffffffffff16906020019092919050505061278a565b005b34801561084f57600080fd5b506108aa600480360381019080803590602001908201803590602001908080601f0160208091040260200160405190810160405280939291908181526020018383808284378201915050505050509192919290505050612a80565b6040518080602001828103825283818151815260200191508051906020019060200280838360005b838110156108ed5780820151818401526020810190506108d2565b505050509050019250505060405180910390f35b60008181548110151561091057fe5b9060005260206000209060020201600091509050806000018054600181600116156101000203166002900480601f0160208091040260200160405190810160405280929190818152602001828054600181600116156101000203166002900480156109bc5780601f10610991576101008083540402835291602001916109bc565b820191906000526020600020905b81548152906001019060200180831161099f57829003601f168201915b5050505050908060010160009054906101000a900473ffffffffffffffffffffffffffffffffffffffff16905082565b600060011515600560003373ffffffffffffffffffffffffffffffffffffffff1673ffffffffffffffffffffffffffffffffffffffff16815260200190815260200160002060009054906101000a900460ff161515141515610a4d57600080fd5b600115156004846040518082805190602001908083835b602083101515610a895780518252602082019150602081019050602083039250610a64565b6001836020036101000a038019825116818451168082178552505050505050905001915050908152602001604051809103902060020160009054906101000a900460ff161515141515610adb57600080fd5b600115156003846040518082805190602001908083835b602083101515610b175780518252602082019150602081019050602083039250610af2565b6001836020036101000a038019825116818451168082178552505050505050905001915050908152602001604051809103902060010160149054906101000a900460ff161515141515610b6957600080fd5b60006003846040518082805190602001908083835b602083101515610ba35780518252602082019150602081019050602083039250610b7e565b6001836020036101000a038019825116818451168082178552505050505050905001915050908152602001604051809103902060010160146101000a81548160ff02191690831515021790555060006004846040518082805190602001908083835b602083101515610c2a5780518252602082019150602081019050602083039250610c05565b6001836020036101000a038019825116818451168082178552505050505050905001915050908152602001604051809103902060020160006101000a81548160ff02191690831515021790555060006003846040518082805190602001908083835b602083101515610cb15780518252602082019150602081019050602083039250610c8c565b6001836020036101000a038019825116818451168082178552505050505050905001915050908152602001604051809103902060010160156101000a81548160ff021916908315150217905550600090505b600280549050811015610edb578173ffffffffffffffffffffffffffffffffffffffff16600282815481101515610d3657fe5b906000526020600020906002020160010160009054906101000a900473ffffffffffffffffffffffffffffffffffffffff1673ffffffffffffffffffffffffffffffffffffffff161415610ece576002600160028054905003815481101515610d9b57fe5b9060005260206000209060020201600282815481101515610db857fe5b906000526020600020906002020160008201816000019080546001816001161561010002031660029004610ded929190612ba9565b506001820160009054906101000a900473ffffffffffffffffffffffffffffffffffffffff168160010160006101000a81548173ffffffffffffffffffffffffffffffffffffffff021916908373ffffffffffffffffffffffffffffffffffffffff1602179055509050506002600160028054905003815481101515610e6f57fe5b906000526020600020906002020160008082016000610e8e9190612c30565b6001820160006101000a81549073ffffffffffffffffffffffffffffffffffffffff021916905550506002805480919060019003610ecc9190612c78565b505b8080600101915050610d03565b505050565b600281815481101515610eef57fe5b9060005260206000209060020201600091509050806000018054600181600116156101000203166002900480601f016020809104026020016040519081016040528092919081815260200182805460018160011615610100020316600290048015610f9b5780601f10610f7057610100808354040283529160200191610f9b565b820191906000526020600020905b815481529060010190602001808311610f7e57829003601f168201915b5050505050908060010160009054906101000a900473ffffffffffffffffffffffffffffffffffffffff16905082565b610fd3612caa565b600660009054906101000a900473ffffffffffffffffffffffffffffffffffffffff1673ffffffffffffffffffffffffffffffffffffffff163373ffffffffffffffffffffffffffffffffffffffff1614151561102f57600080fd5b60408051908101604052808481526020018373ffffffffffffffffffffffffffffffffffffffff1681525090506000819080600181540180825580915050906001820390600052602060002090600202016000909192909190915060008201518160000190805190602001906110a6929190612cda565b5060208201518160010160006101000a81548173ffffffffffffffffffffffffffffffffffffffff021916908373ffffffffffffffffffffffffffffffffffffffff1602179055505050506001600560008473ffffffffffffffffffffffffffffffffffffffff1673ffffffffffffffffffffffffffffffffffffffff16815260200190815260200160002060006101000a81548160ff021916908315150217905550505050565b6000600115156004836040518082805190602001908083835b60208310151561118c5780518252602082019150602081019050602083039250611167565b6001836020036101000a038019825116818451168082178552505050505050905001915050908152602001604051809103902060020160009054906101000a900460ff1615151415156111de57600080fd5b600015156003836040518082805190602001908083835b60208310151561121a57805182526020820191506020810190506020830392506111f5565b6001836020036101000a038019825116818451168082178552505050505050905001915050908152602001604051809103902060010160149054906101000a900460ff16151514151561126c57600080fd5b6004826040518082805190602001908083835b6020831015156112a4578051825260208201915060208101905060208303925061127f565b6001836020036101000a03801982511681845116808217855250505050505090500191505090815260200160405180910390206001018054905090503373ffffffffffffffffffffffffffffffffffffffff166004836040518082805190602001908083835b60208310151561132f578051825260208201915060208101905060208303925061130a565b6001836020036101000a03801982511681845116808217855250505050505090500191505090815260200160405180910390206001016001830381548110151561137557fe5b9060005260206000200160009054906101000a900473ffffffffffffffffffffffffffffffffffffffff1673ffffffffffffffffffffffffffffffffffffffff161415156113c257600080fd5b6004826040518082805190602001908083835b6020831015156113fa57805182526020820191506020810190506020830392506113d5565b6001836020036101000a03801982511681845116808217855250505050505090500191505090815260200160405180910390206001013390806001815401808255809150509060018203906000526020600020016000909192909190916101000a81548173ffffffffffffffffffffffffffffffffffffffff021916908373ffffffffffffffffffffffffffffffffffffffff1602179055505060016003836040518082805190602001908083835b6020831015156114ce57805182526020820191506020810190506020830392506114a9565b6001836020036101000a038019825116818451168082178552505050505050905001915050908152602001604051809103902060010160146101000a81548160ff0219169083151502179055505050565b60011515600560003373ffffffffffffffffffffffffffffffffffffffff1673ffffffffffffffffffffffffffffffffffffffff16815260200190815260200160002060009054906101000a900460ff16151514151561157e57600080fd5b600115156004836040518082805190602001908083835b6020831015156115ba5780518252602082019150602081019050602083039250611595565b6001836020036101000a038019825116818451168082178552505050505050905001915050908152602001604051809103902060020160009054906101000a900460ff16151514151561160c57600080fd5b600115156003836040518082805190602001908083835b6020831015156116485780518252602082019150602081019050602083039250611623565b6001836020036101000a038019825116818451168082178552505050505050905001915050908152602001604051809103902060010160149054906101000a900460ff16151514151561169a57600080fd5b6004826040518082805190602001908083835b6020831015156116d257805182526020820191506020810190506020830392506116ad565b6001836020036101000a03801982511681845116808217855250505050505090500191505090815260200160405180910390206001018190806001815401808255809150509060018203906000526020600020016000909192909190916101000a81548173ffffffffffffffffffffffffffffffffffffffff021916908373ffffffffffffffffffffffffffffffffffffffff1602179055505060006003836040518082805190602001908083835b6020831015156117a65780518252602082019150602081019050602083039250611781565b6001836020036101000a038019825116818451168082178552505050505050905001915050908152602001604051809103902060010160146101000a81548160ff0219169083151502179055505050565b60011515600560003373ffffffffffffffffffffffffffffffffffffffff1673ffffffffffffffffffffffffffffffffffffffff16815260200190815260200160002060009054906101000a900460ff16151514151561185657600080fd5b6004826040518082805190602001908083835b60208310151561188e5780518252602082019150602081019050602083039250611869565b6001836020036101000a03801982511681845116808217855250505050505090500191505090815260200160405180910390206003018190806001815401808255809150509060018203906000526020600020016000909192909190915090600019169055505050565b60056020528060005260406000206000915054906101000a900460ff1681565b3373ffffffffffffffffffffffffffffffffffffffff166003846040518082805190602001908083835b6020831015156119675780518252602082019150602081019050602083039250611942565b6001836020036101000a038019825116818451168082178552505050505050905001915050908152602001604051809103902060010160009054906101000a900473ffffffffffffffffffffffffffffffffffffffff1673ffffffffffffffffffffffffffffffffffffffff161415156119e057600080fd5b600115156003846040518082805190602001908083835b602083101515611a1c57805182526020820191506020810190506020830392506119f7565b6001836020036101000a038019825116818451168082178552505050505050905001915050908152602001604051809103902060010160149054906101000a900460ff161515141515611a6e57600080fd5b600115156003836040518082805190602001908083835b602083101515611aaa5780518252602082019150602081019050602083039250611a85565b6001836020036101000a038019825116818451168082178552505050505050905001915050908152602001604051809103902060010160149054906101000a900460ff161515141515611afc57600080fd5b806003846040518082805190602001908083835b602083101515611b355780518252602082019150602081019050602083039250611b10565b6001836020036101000a038019825116818451168082178552505050505050905001915050908152602001604051809103902060010160006101000a81548173ffffffffffffffffffffffffffffffffffffffff021916908373ffffffffffffffffffffffffffffffffffffffff160217905550336003836040518082805190602001908083835b602083101515611be25780518252602082019150602081019050602083039250611bbd565b6001836020036101000a038019825116818451168082178552505050505050905001915050908152602001604051809103902060010160006101000a81548173ffffffffffffffffffffffffffffffffffffffff021916908373ffffffffffffffffffffffffffffffffffffffff160217905550826004846040518082805190602001908083835b602083101515611c8f5780518252602082019150602081019050602083039250611c6a565b6001836020036101000a03801982511681845116808217855250505050505090500191505090815260200160405180910390206000019080519060200190611cd8929190612d5a565b506004836040518082805190602001908083835b602083101515611d115780518252602082019150602081019050602083039250611cec565b6001836020036101000a03801982511681845116808217855250505050505090500191505090815260200160405180910390206001018190806001815401808255809150509060018203906000526020600020016000909192909190916101000a81548173ffffffffffffffffffffffffffffffffffffffff021916908373ffffffffffffffffffffffffffffffffffffffff1602179055505060016004846040518082805190602001908083835b602083101515611de55780518252602082019150602081019050602083039250611dc0565b6001836020036101000a038019825116818451168082178552505050505050905001915050908152602001604051809103902060020160006101000a81548160ff021916908315150217905550826004836040518082805190602001908083835b602083101515611e6b5780518252602082019150602081019050602083039250611e46565b6001836020036101000a03801982511681845116808217855250505050505090500191505090815260200160405180910390206000019080519060200190611eb4929190612d5a565b506004826040518082805190602001908083835b602083101515611eed5780518252602082019150602081019050602083039250611ec8565b6001836020036101000a03801982511681845116808217855250505050505090500191505090815260200160405180910390206001013390806001815401808255809150509060018203906000526020600020016000909192909190916101000a81548173ffffffffffffffffffffffffffffffffffffffff021916908373ffffffffffffffffffffffffffffffffffffffff1602179055505060016004846040518082805190602001908083835b602083101515611fc15780518252602082019150602081019050602083039250611f9c565b6001836020036101000a038019825116818451168082178552505050505050905001915050908152602001604051809103902060020160006101000a81548160ff021916908315150217905550505050565b600660009054906101000a900473ffffffffffffffffffffffffffffffffffffffff1681565b6000600180549050905090565b61204e612dda565b612056612e1d565b60011515600560003373ffffffffffffffffffffffffffffffffffffffff1673ffffffffffffffffffffffffffffffffffffffff16815260200190815260200160002060009054906101000a900460ff1615151415156120b557600080fd5b600015156004856040518082805190602001908083835b6020831015156120f157805182526020820191506020810190506020830392506120cc565b6001836020036101000a038019825116818451168082178552505050505050905001915050908152602001604051809103902060020160009054906101000a900460ff16151514151561214357600080fd5b6080604051908101604052808581526020018473ffffffffffffffffffffffffffffffffffffffff16815260200160011515815260200160011515815250915060408051908101604052808581526020018473ffffffffffffffffffffffffffffffffffffffff168152509050816003856040518082805190602001908083835b6020831015156121e957805182526020820191506020810190506020830392506121c4565b6001836020036101000a03801982511681845116808217855250505050505090500191505090815260200160405180910390206000820151816000019080519060200190612238929190612cda565b5060208201518160010160006101000a81548173ffffffffffffffffffffffffffffffffffffffff021916908373ffffffffffffffffffffffffffffffffffffffff16021790555060408201518160010160146101000a81548160ff02191690831515021790555060608201518160010160156101000a81548160ff021916908315150217905550905050836004856040518082805190602001908083835b6020831015156122fc57805182526020820191506020810190506020830392506122d7565b6001836020036101000a03801982511681845116808217855250505050505090500191505090815260200160405180910390206000019080519060200190612345929190612d5a565b506004846040518082805190602001908083835b60208310151561237e5780518252602082019150602081019050602083039250612359565b6001836020036101000a03801982511681845116808217855250505050505090500191505090815260200160405180910390206001018390806001815401808255809150509060018203906000526020600020016000909192909190916101000a81548173ffffffffffffffffffffffffffffffffffffffff021916908373ffffffffffffffffffffffffffffffffffffffff1602179055505060016004856040518082805190602001908083835b602083101515612452578051825260208201915060208101905060208303925061242d565b6001836020036101000a038019825116818451168082178552505050505050905001915050908152602001604051809103902060020160006101000a81548160ff02191690831515021790555060006003856040518082805190602001908083835b6020831015156124d957805182526020820191506020810190506020830392506124b4565b6001836020036101000a038019825116818451168082178552505050505050905001915050908152602001604051809103902060010160156101000a81548160ff0219169083151502179055506001849080600181540180825580915050906001820390600052602060002001600090919290919091509080519060200190612563929190612d5a565b50506002819080600181540180825580915050906001820390600052602060002090600202016000909192909190915060008201518160000190805190602001906125af929190612cda565b5060208201518160010160006101000a81548173ffffffffffffffffffffffffffffffffffffffff021916908373ffffffffffffffffffffffffffffffffffffffff16021790555050505050505050565b6060600115156004836040518082805190602001908083835b60208310151561263e5780518252602082019150602081019050602083039250612619565b6001836020036101000a038019825116818451168082178552505050505050905001915050908152602001604051809103902060020160009054906101000a900460ff16151514151561269057600080fd5b6004826040518082805190602001908083835b6020831015156126c857805182526020820191506020810190506020830392506126a3565b6001836020036101000a038019825116818451168082178552505050505050905001915050908152602001604051809103902060010180548060200260200160405190810160405280929190818152602001828054801561277e57602002820191906000526020600020905b8160009054906101000a900473ffffffffffffffffffffffffffffffffffffffff1673ffffffffffffffffffffffffffffffffffffffff1681526020019060010190808311612734575b50505050509050919050565b6000600660009054906101000a900473ffffffffffffffffffffffffffffffffffffffff1673ffffffffffffffffffffffffffffffffffffffff163373ffffffffffffffffffffffffffffffffffffffff161415156127e857600080fd5b60011515600560008473ffffffffffffffffffffffffffffffffffffffff1673ffffffffffffffffffffffffffffffffffffffff16815260200190815260200160002060009054906101000a900460ff16151514151561284757600080fd5b6000600560008473ffffffffffffffffffffffffffffffffffffffff1673ffffffffffffffffffffffffffffffffffffffff16815260200190815260200160002060006101000a81548160ff021916908315150217905550600090505b600080549050811015612a7c578173ffffffffffffffffffffffffffffffffffffffff166000828154811015156128d757fe5b906000526020600020906002020160010160009054906101000a900473ffffffffffffffffffffffffffffffffffffffff1673ffffffffffffffffffffffffffffffffffffffff161415612a6f57600060016000805490500381548110151561293c57fe5b906000526020600020906002020160008281548110151561295957fe5b90600052602060002090600202016000820181600001908054600181600116156101000203166002900461298e929190612ba9565b506001820160009054906101000a900473ffffffffffffffffffffffffffffffffffffffff168160010160006101000a81548173ffffffffffffffffffffffffffffffffffffffff021916908373ffffffffffffffffffffffffffffffffffffffff1602179055509050506000600160008054905003815481101515612a1057fe5b906000526020600020906002020160008082016000612a2f9190612c30565b6001820160006101000a81549073ffffffffffffffffffffffffffffffffffffffff021916905550506000805480919060019003612a6d9190612e4d565b505b80806001019150506128a4565b5050565b606060011515600560003373ffffffffffffffffffffffffffffffffffffffff1673ffffffffffffffffffffffffffffffffffffffff16815260200190815260200160002060009054906101000a900460ff161515141515612ae157600080fd5b6004826040518082805190602001908083835b602083101515612b195780518252602082019150602081019050602083039250612af4565b6001836020036101000a0380198251168184511680821785525050505050509050019150509081526020016040518091039020600301805480602002602001604051908101604052809291908181526020018280548015612b9d57602002820191906000526020600020905b81546000191681526020019060010190808311612b85575b50505050509050919050565b828054600181600116156101000203166002900490600052602060002090601f016020900481019282601f10612be25780548555612c1f565b82800160010185558215612c1f57600052602060002091601f016020900482015b82811115612c1e578254825591600101919060010190612c03565b5b509050612c2c9190612e7f565b5090565b50805460018160011615610100020316600290046000825580601f10612c565750612c75565b601f016020900490600052602060002090810190612c749190612e7f565b5b50565b815481835581811115612ca557600202816002028360005260206000209182019101612ca49190612ea4565b5b505050565b604080519081016040528060608152602001600073ffffffffffffffffffffffffffffffffffffffff1681525090565b828054600181600116156101000203166002900490600052602060002090601f016020900481019282601f10612d1b57805160ff1916838001178555612d49565b82800160010185558215612d49579182015b82811115612d48578251825591602001919060010190612d2d565b5b509050612d569190612e7f565b5090565b828054600181600116156101000203166002900490600052602060002090601f016020900481019282601f10612d9b57805160ff1916838001178555612dc9565b82800160010185558215612dc9579182015b82811115612dc8578251825591602001919060010190612dad565b5b509050612dd69190612e7f565b5090565b60806040519081016040528060608152602001600073ffffffffffffffffffffffffffffffffffffffff1681526020016000151581526020016000151581525090565b604080519081016040528060608152602001600073ffffffffffffffffffffffffffffffffffffffff1681525090565b815481835581811115612e7a57600202816002028360005260206000209182019101612e799190612efa565b5b505050565b612ea191905b80821115612e9d576000816000905550600101612e85565b5090565b90565b612ef791905b80821115612ef35760008082016000612ec39190612c30565b6001820160006101000a81549073ffffffffffffffffffffffffffffffffffffffff021916905550600201612eaa565b5090565b90565b612f4d91905b80821115612f495760008082016000612f199190612c30565b6001820160006101000a81549073ffffffffffffffffffffffffffffffffffffffff021916905550600201612f00565b5090565b905600a165627a7a7230582061b89db0ef9997f7ba6556712f46adf6308d1fe0881422dc5ccb6e26c16b68680029",
  "source": "pragma solidity ^0.4.23;\n//pragma experimental ABIEncoderV2;\n\ncontract Library {\n\n    struct Librarian {\n        string libName;\n        address libAddress;\n    }\n\n    struct Book {\n        string bookName;\n        address bookOwner;\n        bool checkedIn;\n        bool exists;\n    }\n\n    struct AllCurrentBooks {\n      string bookName;\n      address bookOwner;\n    }\n\n\n    struct BookHistory {\n        string name;\n        address [] adr;\n        bool validBook;\n        bytes32 [] damageRepair;\n    }\n\n\n   Librarian[] public librarians;\n   string [] totalBooks;\n   AllCurrentBooks [] public allCurrentBooks;\n\n   mapping(string => Book) books;\n   mapping(string => BookHistory) bookHistory;\n   mapping (address => bool) public mapLibrarian;\n\n   address public owner;\n\n    constructor () public {\n        owner = msg.sender;\n    }\n\n\n    function addLibrarian (string libName, address libAddress) public {\n        require(msg.sender == owner);\n        Librarian memory newLibrarian = Librarian({\n           libName: libName,\n           libAddress: libAddress\n        });\n\n        librarians.push(newLibrarian);\n        mapLibrarian[libAddress] = true;\n    }\n\n    function removeLibrarian(address libAddress) public {\n        require(msg.sender == owner);\n        require(mapLibrarian[libAddress] == true);\n        mapLibrarian[libAddress] = false;\n        for(uint i=0; i<librarians.length; i++) {\n            if(librarians[i].libAddress == libAddress) {\n                librarians[i] = librarians[librarians.length-1];\n                delete librarians[librarians.length-1];\n                librarians.length--;\n            }\n        }\n    }\n\n    function addBook(string bookName, address bookOwner) public {\n        require(mapLibrarian[msg.sender] == true);\n        require(bookHistory[bookName].validBook == false);\n        Book memory newBook = Book({\n            bookName: bookName,\n            bookOwner: bookOwner,\n            checkedIn: true,\n            exists: true\n        });\n        AllCurrentBooks memory bookN = AllCurrentBooks({\n          bookName: bookName,\n          bookOwner: bookOwner\n          });\n        books[bookName] = newBook;\n        bookHistory[bookName].name = bookName;\n        bookHistory[bookName].adr.push(bookOwner);\n        bookHistory[bookName].validBook = true;\n        books[bookName].exists = false;\n        totalBooks.push(bookName);\n        allCurrentBooks.push(bookN);\n    }\n\n    function removeBook(string bookName, address bookOwner) public {\n         require(mapLibrarian[msg.sender] == true);\n         require(bookHistory[bookName].validBook == true);\n         require(books[bookName].checkedIn == true);\n          books[bookName].checkedIn = false;\n          bookHistory[bookName].validBook = false;\n          books[bookName].exists = false;\n         for(uint i=0; i<allCurrentBooks.length; i++) {\n              if(allCurrentBooks[i].bookOwner == bookOwner) {\n                  allCurrentBooks[i] = allCurrentBooks[allCurrentBooks.length-1];\n                  delete allCurrentBooks[allCurrentBooks.length-1];\n                  allCurrentBooks.length--;\n              }\n          }\n      }\n\n  function showTotalBooks() public view returns (uint) {\n      return totalBooks.length;\n   }\n\n    function checkInBook(string bookName) public {\n        require(bookHistory[bookName].validBook == true);\n        require(books[bookName].checkedIn == false);\n        uint length = bookHistory[bookName].adr.length;\n        require(bookHistory[bookName].adr[length - 1] == msg.sender);\n        bookHistory[bookName].adr.push(msg.sender);\n        books[bookName].checkedIn = true;\n    }\n\n    function checkOutBook(string bookName, address checkOutAddress) public {\n        require(mapLibrarian[msg.sender] == true);\n        require(bookHistory[bookName].validBook == true);\n        require(books[bookName].checkedIn == true);\n        bookHistory[bookName].adr.push(checkOutAddress);\n        books[bookName].checkedIn = false;\n\n    }\n\n    function tradeBook(string tradeInBook, string tradeWithBook, address newOwner) public {\n        require(books[tradeInBook].bookOwner == msg.sender);\n        require(books[tradeInBook].checkedIn == true);\n        require(books[tradeWithBook].checkedIn == true);\n        books[tradeInBook].bookOwner = newOwner;\n        books[tradeWithBook].bookOwner = msg.sender;\n        bookHistory[tradeInBook].name = tradeInBook;\n        bookHistory[tradeInBook].adr.push(newOwner);\n        bookHistory[tradeInBook].validBook = true;\n        bookHistory[tradeWithBook].name = tradeInBook;\n        bookHistory[tradeWithBook].adr.push(msg.sender);\n        bookHistory[tradeInBook].validBook = true;\n    }\n\n     function addDamageRepairHistory (string bookName, bytes32 data) public {\n        require(mapLibrarian[msg.sender] == true);\n        bookHistory[bookName].damageRepair.push(data);\n    }\n\n    function showDamageRepairHistory (string bookName) public view returns (bytes32 []) {\n        require(mapLibrarian[msg.sender] == true);\n        return bookHistory[bookName].damageRepair;\n    }\n\n    function trackBookHistory(string bookName) public view returns (address []) {\n\n        require(bookHistory[bookName].validBook == true);\n        return bookHistory[bookName].adr;\n\n    }\n\n}\n",
  "sourcePath": "/Users/Rwc/Desktop/Rachna Programming/solidity/library/contracts/Library.sol",
  "compiler": {
    "name": "solc",
    "version": "0.4.23+commit.124ca40d.Emscripten.clang"
  },
  "schemaVersion": "2.0.0",
  "updatedAt": "2018-09-03T08:33:15.193Z"
}