{
  "contractName": "Library",
  "abi": [
    {
      "constant": true,
      "inputs": [],
      "name": "mintingFinished",
      "outputs": [
        {
          "name": "",
          "type": "bool"
        }
      ],
      "payable": false,
      "stateMutability": "view",
      "type": "function"
    },
    {
      "constant": true,
      "inputs": [],
      "name": "name",
      "outputs": [
        {
          "name": "",
          "type": "string"
        }
      ],
      "payable": false,
      "stateMutability": "view",
      "type": "function"
    },
    {
      "constant": false,
      "inputs": [
        {
          "name": "_spender",
          "type": "address"
        },
        {
          "name": "_value",
          "type": "uint256"
        }
      ],
      "name": "approve",
      "outputs": [
        {
          "name": "",
          "type": "bool"
        }
      ],
      "payable": false,
      "stateMutability": "nonpayable",
      "type": "function"
    },
    {
      "constant": true,
      "inputs": [
        {
          "name": "",
          "type": "uint256"
        }
      ],
      "name": "librarians",
      "outputs": [
        {
          "name": "libName",
          "type": "string"
        },
        {
          "name": "libAddress",
          "type": "address"
        }
      ],
      "payable": false,
      "stateMutability": "view",
      "type": "function"
    },
    {
      "constant": true,
      "inputs": [],
      "name": "totalSupply",
      "outputs": [
        {
          "name": "",
          "type": "uint256"
        }
      ],
      "payable": false,
      "stateMutability": "view",
      "type": "function"
    },
    {
      "constant": true,
      "inputs": [
        {
          "name": "",
          "type": "uint256"
        }
      ],
      "name": "allCurrentBooks",
      "outputs": [
        {
          "name": "bookName",
          "type": "string"
        },
        {
          "name": "bookOwner",
          "type": "address"
        }
      ],
      "payable": false,
      "stateMutability": "view",
      "type": "function"
    },
    {
      "constant": false,
      "inputs": [
        {
          "name": "_from",
          "type": "address"
        },
        {
          "name": "_to",
          "type": "address"
        },
        {
          "name": "_value",
          "type": "uint256"
        }
      ],
      "name": "transferFrom",
      "outputs": [
        {
          "name": "",
          "type": "bool"
        }
      ],
      "payable": false,
      "stateMutability": "nonpayable",
      "type": "function"
    },
    {
      "constant": true,
      "inputs": [],
      "name": "decimals",
      "outputs": [
        {
          "name": "",
          "type": "uint8"
        }
      ],
      "payable": false,
      "stateMutability": "view",
      "type": "function"
    },
    {
      "constant": false,
      "inputs": [
        {
          "name": "_to",
          "type": "address"
        },
        {
          "name": "_amount",
          "type": "uint256"
        }
      ],
      "name": "mint",
      "outputs": [
        {
          "name": "",
          "type": "bool"
        }
      ],
      "payable": false,
      "stateMutability": "nonpayable",
      "type": "function"
    },
    {
      "constant": true,
      "inputs": [
        {
          "name": "",
          "type": "address"
        }
      ],
      "name": "mapLibrarian",
      "outputs": [
        {
          "name": "",
          "type": "bool"
        }
      ],
      "payable": false,
      "stateMutability": "view",
      "type": "function"
    },
    {
      "constant": false,
      "inputs": [
        {
          "name": "_spender",
          "type": "address"
        },
        {
          "name": "_subtractedValue",
          "type": "uint256"
        }
      ],
      "name": "decreaseApproval",
      "outputs": [
        {
          "name": "",
          "type": "bool"
        }
      ],
      "payable": false,
      "stateMutability": "nonpayable",
      "type": "function"
    },
    {
      "constant": true,
      "inputs": [
        {
          "name": "_owner",
          "type": "address"
        }
      ],
      "name": "balanceOf",
      "outputs": [
        {
          "name": "",
          "type": "uint256"
        }
      ],
      "payable": false,
      "stateMutability": "view",
      "type": "function"
    },
    {
      "constant": false,
      "inputs": [],
      "name": "renounceOwnership",
      "outputs": [],
      "payable": false,
      "stateMutability": "nonpayable",
      "type": "function"
    },
    {
      "constant": false,
      "inputs": [],
      "name": "finishMinting",
      "outputs": [
        {
          "name": "",
          "type": "bool"
        }
      ],
      "payable": false,
      "stateMutability": "nonpayable",
      "type": "function"
    },
    {
      "constant": true,
      "inputs": [],
      "name": "owner",
      "outputs": [
        {
          "name": "",
          "type": "address"
        }
      ],
      "payable": false,
      "stateMutability": "view",
      "type": "function"
    },
    {
      "constant": true,
      "inputs": [],
      "name": "symbol",
      "outputs": [
        {
          "name": "",
          "type": "string"
        }
      ],
      "payable": false,
      "stateMutability": "view",
      "type": "function"
    },
    {
      "constant": false,
      "inputs": [
        {
          "name": "_to",
          "type": "address"
        },
        {
          "name": "_value",
          "type": "uint256"
        }
      ],
      "name": "transfer",
      "outputs": [
        {
          "name": "",
          "type": "bool"
        }
      ],
      "payable": false,
      "stateMutability": "nonpayable",
      "type": "function"
    },
    {
      "constant": false,
      "inputs": [
        {
          "name": "_spender",
          "type": "address"
        },
        {
          "name": "_addedValue",
          "type": "uint256"
        }
      ],
      "name": "increaseApproval",
      "outputs": [
        {
          "name": "",
          "type": "bool"
        }
      ],
      "payable": false,
      "stateMutability": "nonpayable",
      "type": "function"
    },
    {
      "constant": true,
      "inputs": [
        {
          "name": "_owner",
          "type": "address"
        },
        {
          "name": "_spender",
          "type": "address"
        }
      ],
      "name": "allowance",
      "outputs": [
        {
          "name": "",
          "type": "uint256"
        }
      ],
      "payable": false,
      "stateMutability": "view",
      "type": "function"
    },
    {
      "constant": false,
      "inputs": [
        {
          "name": "_newOwner",
          "type": "address"
        }
      ],
      "name": "transferOwnership",
      "outputs": [],
      "payable": false,
      "stateMutability": "nonpayable",
      "type": "function"
    },
    {
      "inputs": [],
      "payable": false,
      "stateMutability": "nonpayable",
      "type": "constructor"
    },
    {
      "anonymous": false,
      "inputs": [
        {
          "indexed": true,
          "name": "to",
          "type": "address"
        },
        {
          "indexed": false,
          "name": "amount",
          "type": "uint256"
        }
      ],
      "name": "Mint",
      "type": "event"
    },
    {
      "anonymous": false,
      "inputs": [],
      "name": "MintFinished",
      "type": "event"
    },
    {
      "anonymous": false,
      "inputs": [
        {
          "indexed": true,
          "name": "previousOwner",
          "type": "address"
        }
      ],
      "name": "OwnershipRenounced",
      "type": "event"
    },
    {
      "anonymous": false,
      "inputs": [
        {
          "indexed": true,
          "name": "previousOwner",
          "type": "address"
        },
        {
          "indexed": true,
          "name": "newOwner",
          "type": "address"
        }
      ],
      "name": "OwnershipTransferred",
      "type": "event"
    },
    {
      "anonymous": false,
      "inputs": [
        {
          "indexed": true,
          "name": "owner",
          "type": "address"
        },
        {
          "indexed": true,
          "name": "spender",
          "type": "address"
        },
        {
          "indexed": false,
          "name": "value",
          "type": "uint256"
        }
      ],
      "name": "Approval",
      "type": "event"
    },
    {
      "anonymous": false,
      "inputs": [
        {
          "indexed": true,
          "name": "from",
          "type": "address"
        },
        {
          "indexed": true,
          "name": "to",
          "type": "address"
        },
        {
          "indexed": false,
          "name": "value",
          "type": "uint256"
        }
      ],
      "name": "Transfer",
      "type": "event"
    },
    {
      "constant": false,
      "inputs": [
        {
          "name": "libName",
          "type": "string"
        },
        {
          "name": "libAddress",
          "type": "address"
        }
      ],
      "name": "addLibrarian",
      "outputs": [],
      "payable": false,
      "stateMutability": "nonpayable",
      "type": "function"
    },
    {
      "constant": false,
      "inputs": [
        {
          "name": "libAddress",
          "type": "address"
        }
      ],
      "name": "removeLibrarian",
      "outputs": [],
      "payable": false,
      "stateMutability": "nonpayable",
      "type": "function"
    },
    {
      "constant": false,
      "inputs": [
        {
          "name": "bookName",
          "type": "string"
        },
        {
          "name": "bookOwner",
          "type": "address"
        }
      ],
      "name": "addBook",
      "outputs": [],
      "payable": false,
      "stateMutability": "nonpayable",
      "type": "function"
    },
    {
      "constant": false,
      "inputs": [
        {
          "name": "bookName",
          "type": "string"
        },
        {
          "name": "bookOwner",
          "type": "address"
        }
      ],
      "name": "removeBook",
      "outputs": [],
      "payable": false,
      "stateMutability": "nonpayable",
      "type": "function"
    },
    {
      "constant": true,
      "inputs": [],
      "name": "showTotalBooks",
      "outputs": [
        {
          "name": "",
          "type": "uint256"
        }
      ],
      "payable": false,
      "stateMutability": "view",
      "type": "function"
    },
    {
      "constant": false,
      "inputs": [
        {
          "name": "bookName",
          "type": "string"
        }
      ],
      "name": "checkInBook",
      "outputs": [],
      "payable": false,
      "stateMutability": "nonpayable",
      "type": "function"
    },
    {
      "constant": false,
      "inputs": [
        {
          "name": "bookName",
          "type": "string"
        },
        {
          "name": "checkOutAddress",
          "type": "address"
        }
      ],
      "name": "checkOutBook",
      "outputs": [],
      "payable": false,
      "stateMutability": "nonpayable",
      "type": "function"
    },
    {
      "constant": false,
      "inputs": [
        {
          "name": "tradeInBook",
          "type": "string"
        },
        {
          "name": "tradeWithBook",
          "type": "string"
        },
        {
          "name": "newOwner",
          "type": "address"
        }
      ],
      "name": "tradeBook",
      "outputs": [],
      "payable": false,
      "stateMutability": "nonpayable",
      "type": "function"
    },
    {
      "constant": false,
      "inputs": [
        {
          "name": "bookName",
          "type": "string"
        },
        {
          "name": "data",
          "type": "bytes32"
        }
      ],
      "name": "addDamageRepairHistory",
      "outputs": [],
      "payable": false,
      "stateMutability": "nonpayable",
      "type": "function"
    },
    {
      "constant": true,
      "inputs": [
        {
          "name": "bookName",
          "type": "string"
        }
      ],
      "name": "showDamageRepairHistory",
      "outputs": [
        {
          "name": "",
          "type": "bytes32[]"
        }
      ],
      "payable": false,
      "stateMutability": "view",
      "type": "function"
    },
    {
      "constant": true,
      "inputs": [
        {
          "name": "bookName",
          "type": "string"
        }
      ],
      "name": "trackBookHistory",
      "outputs": [
        {
          "name": "",
          "type": "address[]"
        }
      ],
      "payable": false,
      "stateMutability": "view",
      "type": "function"
    }
  ],
  "bytecode": "0x60806040526000600360146101000a81548160ff02191690831515021790555034801561002b57600080fd5b5033600360006101000a81548173ffffffffffffffffffffffffffffffffffffffff021916908373ffffffffffffffffffffffffffffffffffffffff16021790555033600a60006101000a81548173ffffffffffffffffffffffffffffffffffffffff021916908373ffffffffffffffffffffffffffffffffffffffff160217905550614824806100bd6000396000f30060806040526004361061018b576000357c0100000000000000000000000000000000000000000000000000000000900463ffffffff16806305d2035b1461019057806306fdde03146101bf578063095ea7b31461024f57806313319d72146102b45780631613a2e21461038d57806318160ddd146104165780631e6ec7ae1461044157806323b872dd1461051a5780632912d4151461059f578063313ce567146106285780633bc391f51461065957806340c10f19146106c25780634605db0e1461072757806349ebd3da146107b05780636446d96014610827578063661884631461088257806370a08231146108e7578063715018a61461093e578063786d7935146109555780637d64bcb414610a245780638da5cb5b14610a5357806395d89b4114610aaa57806396f7ec1214610b3a578063a9059cbb14610b65578063d22591c814610bca578063d4a309ce14610c53578063d73dd62314610d11578063dd62ed3e14610d76578063e8d5cb4014610ded578063f2fde38b14610e30578063f4dac75d14610e73575b600080fd5b34801561019c57600080fd5b506101a5610f31565b604051808215151515815260200191505060405180910390f35b3480156101cb57600080fd5b506101d4610f44565b6040518080602001828103825283818151815260200191508051906020019080838360005b838110156102145780820151818401526020810190506101f9565b50505050905090810190601f1680156102415780820380516001836020036101000a031916815260200191505b509250505060405180910390f35b34801561025b57600080fd5b5061029a600480360381019080803573ffffffffffffffffffffffffffffffffffffffff16906020019092919080359060200190929190505050610f7d565b604051808215151515815260200191505060405180910390f35b3480156102c057600080fd5b506102df6004803603810190808035906020019092919050505061106f565b60405180806020018373ffffffffffffffffffffffffffffffffffffffff1673ffffffffffffffffffffffffffffffffffffffff168152602001828103825284818151815260200191508051906020019080838360005b83811015610351578082015181840152602081019050610336565b50505050905090810190601f16801561037e5780820380516001836020036101000a031916815260200191505b50935050505060405180910390f35b34801561039957600080fd5b50610414600480360381019080803590602001908201803590602001908080601f0160208091040260200160405190810160405280939291908181526020018383808284378201915050505050509192919290803573ffffffffffffffffffffffffffffffffffffffff16906020019092919050505061115a565b005b34801561042257600080fd5b5061042b611664565b6040518082815260200191505060405180910390f35b34801561044d57600080fd5b5061046c6004803603810190808035906020019092919050505061166e565b60405180806020018373ffffffffffffffffffffffffffffffffffffffff1673ffffffffffffffffffffffffffffffffffffffff168152602001828103825284818151815260200191508051906020019080838360005b838110156104de5780820151818401526020810190506104c3565b50505050905090810190601f16801561050b5780820380516001836020036101000a031916815260200191505b50935050505060405180910390f35b34801561052657600080fd5b50610585600480360381019080803573ffffffffffffffffffffffffffffffffffffffff169060200190929190803573ffffffffffffffffffffffffffffffffffffffff16906020019092919080359060200190929190505050611759565b604051808215151515815260200191505060405180910390f35b3480156105ab57600080fd5b50610626600480360381019080803590602001908201803590602001908080601f0160208091040260200160405190810160405280939291908181526020018383808284378201915050505050509192919290803573ffffffffffffffffffffffffffffffffffffffff169060200190929190505050611b14565b005b34801561063457600080fd5b5061063d611c97565b604051808260ff1660ff16815260200191505060405180910390f35b34801561066557600080fd5b506106c0600480360381019080803590602001908201803590602001908080601f0160208091040260200160405190810160405280939291908181526020018383808284378201915050505050509192919290505050611c9c565b005b3480156106ce57600080fd5b5061070d600480360381019080803573ffffffffffffffffffffffffffffffffffffffff1690602001909291908035906020019092919050505061206d565b604051808215151515815260200191505060405180910390f35b34801561073357600080fd5b506107ae600480360381019080803590602001908201803590602001908080601f0160208091040260200160405190810160405280939291908181526020018383808284378201915050505050509192919290803573ffffffffffffffffffffffffffffffffffffffff169060200190929190505050612253565b005b3480156107bc57600080fd5b50610825600480360381019080803590602001908201803590602001908080601f0160208091040260200160405190810160405280939291908181526020018383808284378201915050505050509192919290803560001916906020019092919050505061252b565b005b34801561083357600080fd5b50610868600480360381019080803573ffffffffffffffffffffffffffffffffffffffff16906020019092919050505061262c565b604051808215151515815260200191505060405180910390f35b34801561088e57600080fd5b506108cd600480360381019080803573ffffffffffffffffffffffffffffffffffffffff1690602001909291908035906020019092919050505061264c565b604051808215151515815260200191505060405180910390f35b3480156108f357600080fd5b50610928600480360381019080803573ffffffffffffffffffffffffffffffffffffffff1690602001909291905050506128de565b6040518082815260200191505060405180910390f35b34801561094a57600080fd5b50610953612926565b005b34801561096157600080fd5b50610a22600480360381019080803590602001908201803590602001908080601f0160208091040260200160405190810160405280939291908181526020018383808284378201915050505050509192919290803590602001908201803590602001908080601f0160208091040260200160405190810160405280939291908181526020018383808284378201915050505050509192919290803573ffffffffffffffffffffffffffffffffffffffff169060200190929190505050612a2b565b005b348015610a3057600080fd5b50610a39613126565b604051808215151515815260200191505060405180910390f35b348015610a5f57600080fd5b50610a686131ee565b604051808273ffffffffffffffffffffffffffffffffffffffff1673ffffffffffffffffffffffffffffffffffffffff16815260200191505060405180910390f35b348015610ab657600080fd5b50610abf613214565b6040518080602001828103825283818151815260200191508051906020019080838360005b83811015610aff578082015181840152602081019050610ae4565b50505050905090810190601f168015610b2c5780820380516001836020036101000a031916815260200191505b509250505060405180910390f35b348015610b4657600080fd5b50610b4f61324d565b6040518082815260200191505060405180910390f35b348015610b7157600080fd5b50610bb0600480360381019080803573ffffffffffffffffffffffffffffffffffffffff1690602001909291908035906020019092919050505061325a565b604051808215151515815260200191505060405180910390f35b348015610bd657600080fd5b50610c51600480360381019080803590602001908201803590602001908080601f0160208091040260200160405190810160405280939291908181526020018383808284378201915050505050509192919290803573ffffffffffffffffffffffffffffffffffffffff16906020019092919050505061347a565b005b348015610c5f57600080fd5b50610cba600480360381019080803590602001908201803590602001908080601f0160208091040260200160405190810160405280939291908181526020018383808284378201915050505050509192919290505050613a34565b6040518080602001828103825283818151815260200191508051906020019060200280838360005b83811015610cfd578082015181840152602081019050610ce2565b505050509050019250505060405180910390f35b348015610d1d57600080fd5b50610d5c600480360381019080803573ffffffffffffffffffffffffffffffffffffffff16906020019092919080359060200190929190505050613bbe565b604051808215151515815260200191505060405180910390f35b348015610d8257600080fd5b50610dd7600480360381019080803573ffffffffffffffffffffffffffffffffffffffff169060200190929190803573ffffffffffffffffffffffffffffffffffffffff169060200190929190505050613dba565b6040518082815260200191505060405180910390f35b348015610df957600080fd5b50610e2e600480360381019080803573ffffffffffffffffffffffffffffffffffffffff169060200190929190505050613e41565b005b348015610e3c57600080fd5b50610e71600480360381019080803573ffffffffffffffffffffffffffffffffffffffff169060200190929190505050614137565b005b348015610e7f57600080fd5b50610eda600480360381019080803590602001908201803590602001908080601f016020809104026020016040519081016040528093929190818152602001838380828437820191505050505050919291929050505061419f565b6040518080602001828103825283818151815260200191508051906020019060200280838360005b83811015610f1d578082015181840152602081019050610f02565b505050509050019250505060405180910390f35b600360149054906101000a900460ff1681565b6040805190810160405280600d81526020017f4c69627261727920546f6b656e0000000000000000000000000000000000000081525081565b600081600260003373ffffffffffffffffffffffffffffffffffffffff1673ffffffffffffffffffffffffffffffffffffffff16815260200190815260200160002060008573ffffffffffffffffffffffffffffffffffffffff1673ffffffffffffffffffffffffffffffffffffffff168152602001908152602001600020819055508273ffffffffffffffffffffffffffffffffffffffff163373ffffffffffffffffffffffffffffffffffffffff167f8c5be1e5ebec7d5bd14f71427d1e84f3dd0314c0f7b2291e5b200ac8c7c3b925846040518082815260200191505060405180910390a36001905092915050565b60048181548110151561107e57fe5b9060005260206000209060020201600091509050806000018054600181600116156101000203166002900480601f01602080910402602001604051908101604052809291908181526020018280546001816001161561010002031660029004801561112a5780601f106110ff5761010080835404028352916020019161112a565b820191906000526020600020905b81548152906001019060200180831161110d57829003601f168201915b5050505050908060010160009054906101000a900473ffffffffffffffffffffffffffffffffffffffff16905082565b600060011515600960003373ffffffffffffffffffffffffffffffffffffffff1673ffffffffffffffffffffffffffffffffffffffff16815260200190815260200160002060009054906101000a900460ff1615151415156111bb57600080fd5b600115156008846040518082805190602001908083835b6020831015156111f757805182526020820191506020810190506020830392506111d2565b6001836020036101000a038019825116818451168082178552505050505050905001915050908152602001604051809103902060020160009054906101000a900460ff16151514151561124957600080fd5b600115156007846040518082805190602001908083835b6020831015156112855780518252602082019150602081019050602083039250611260565b6001836020036101000a038019825116818451168082178552505050505050905001915050908152602001604051809103902060010160149054906101000a900460ff1615151415156112d757600080fd5b60006007846040518082805190602001908083835b60208310151561131157805182526020820191506020810190506020830392506112ec565b6001836020036101000a038019825116818451168082178552505050505050905001915050908152602001604051809103902060010160146101000a81548160ff02191690831515021790555060006008846040518082805190602001908083835b6020831015156113985780518252602082019150602081019050602083039250611373565b6001836020036101000a038019825116818451168082178552505050505050905001915050908152602001604051809103902060020160006101000a81548160ff02191690831515021790555060006007846040518082805190602001908083835b60208310151561141f57805182526020820191506020810190506020830392506113fa565b6001836020036101000a038019825116818451168082178552505050505050905001915050908152602001604051809103902060010160156101000a81548160ff021916908315150217905550600090505b60068054905081101561165f578173ffffffffffffffffffffffffffffffffffffffff166006828154811015156114a457fe5b906000526020600020906002020160010160009054906101000a900473ffffffffffffffffffffffffffffffffffffffff1673ffffffffffffffffffffffffffffffffffffffff16141561165257600660016006805490500381548110151561150957fe5b906000526020600020906002020160068281548110151561152657fe5b90600052602060002090600202016000820181600001908054600181600116156101000203166002900461155b9291906143f9565b506001820160009054906101000a900473ffffffffffffffffffffffffffffffffffffffff168160010160006101000a81548173ffffffffffffffffffffffffffffffffffffffff021916908373ffffffffffffffffffffffffffffffffffffffff16021790555090505060066001600680549050038154811015156115dd57fe5b9060005260206000209060020201600080820160006115fc9190614480565b6001820160006101000a81549073ffffffffffffffffffffffffffffffffffffffff02191690555050600680548091906001900361163a91906144c8565b50600580548091906001900361165091906144fa565b505b8080600101915050611471565b505050565b6000600154905090565b60068181548110151561167d57fe5b9060005260206000209060020201600091509050806000018054600181600116156101000203166002900480601f0160208091040260200160405190810160405280929190818152602001828054600181600116156101000203166002900480156117295780601f106116fe57610100808354040283529160200191611729565b820191906000526020600020905b81548152906001019060200180831161170c57829003601f168201915b5050505050908060010160009054906101000a900473ffffffffffffffffffffffffffffffffffffffff16905082565b60008060008573ffffffffffffffffffffffffffffffffffffffff1673ffffffffffffffffffffffffffffffffffffffff1681526020019081526020016000205482111515156117a857600080fd5b600260008573ffffffffffffffffffffffffffffffffffffffff1673ffffffffffffffffffffffffffffffffffffffff16815260200190815260200160002060003373ffffffffffffffffffffffffffffffffffffffff1673ffffffffffffffffffffffffffffffffffffffff16815260200190815260200160002054821115151561183357600080fd5b600073ffffffffffffffffffffffffffffffffffffffff168373ffffffffffffffffffffffffffffffffffffffff161415151561186f57600080fd5b6118c0826000808773ffffffffffffffffffffffffffffffffffffffff1673ffffffffffffffffffffffffffffffffffffffff168152602001908152602001600020546142c890919063ffffffff16565b6000808673ffffffffffffffffffffffffffffffffffffffff1673ffffffffffffffffffffffffffffffffffffffff16815260200190815260200160002081905550611953826000808673ffffffffffffffffffffffffffffffffffffffff1673ffffffffffffffffffffffffffffffffffffffff168152602001908152602001600020546142e190919063ffffffff16565b6000808573ffffffffffffffffffffffffffffffffffffffff1673ffffffffffffffffffffffffffffffffffffffff16815260200190815260200160002081905550611a2482600260008773ffffffffffffffffffffffffffffffffffffffff1673ffffffffffffffffffffffffffffffffffffffff16815260200190815260200160002060003373ffffffffffffffffffffffffffffffffffffffff1673ffffffffffffffffffffffffffffffffffffffff168152602001908152602001600020546142c890919063ffffffff16565b600260008673ffffffffffffffffffffffffffffffffffffffff1673ffffffffffffffffffffffffffffffffffffffff16815260200190815260200160002060003373ffffffffffffffffffffffffffffffffffffffff1673ffffffffffffffffffffffffffffffffffffffff168152602001908152602001600020819055508273ffffffffffffffffffffffffffffffffffffffff168473ffffffffffffffffffffffffffffffffffffffff167fddf252ad1be2c89b69c2b068fc378daa952ba7f163c4a11628f55a4df523b3ef846040518082815260200191505060405180910390a3600190509392505050565b611b1c614526565b600a60009054906101000a900473ffffffffffffffffffffffffffffffffffffffff1673ffffffffffffffffffffffffffffffffffffffff163373ffffffffffffffffffffffffffffffffffffffff16141515611b7857600080fd5b60408051908101604052808481526020018373ffffffffffffffffffffffffffffffffffffffff168152509050600481908060018154018082558091505090600182039060005260206000209060020201600090919290919091506000820151816000019080519060200190611bef929190614556565b5060208201518160010160006101000a81548173ffffffffffffffffffffffffffffffffffffffff021916908373ffffffffffffffffffffffffffffffffffffffff1602179055505050506001600960008473ffffffffffffffffffffffffffffffffffffffff1673ffffffffffffffffffffffffffffffffffffffff16815260200190815260200160002060006101000a81548160ff021916908315150217905550505050565b601281565b6000600115156008836040518082805190602001908083835b602083101515611cda5780518252602082019150602081019050602083039250611cb5565b6001836020036101000a038019825116818451168082178552505050505050905001915050908152602001604051809103902060020160009054906101000a900460ff161515141515611d2c57600080fd5b600015156007836040518082805190602001908083835b602083101515611d685780518252602082019150602081019050602083039250611d43565b6001836020036101000a038019825116818451168082178552505050505050905001915050908152602001604051809103902060010160149054906101000a900460ff161515141515611dba57600080fd5b6008826040518082805190602001908083835b602083101515611df25780518252602082019150602081019050602083039250611dcd565b6001836020036101000a03801982511681845116808217855250505050505090500191505090815260200160405180910390206001018054905090503373ffffffffffffffffffffffffffffffffffffffff166008836040518082805190602001908083835b602083101515611e7d5780518252602082019150602081019050602083039250611e58565b6001836020036101000a038019825116818451168082178552505050505050905001915050908152602001604051809103902060010160018303815481101515611ec357fe5b9060005260206000200160009054906101000a900473ffffffffffffffffffffffffffffffffffffffff1673ffffffffffffffffffffffffffffffffffffffff16141515611f1057600080fd5b6008826040518082805190602001908083835b602083101515611f485780518252602082019150602081019050602083039250611f23565b6001836020036101000a03801982511681845116808217855250505050505090500191505090815260200160405180910390206001013390806001815401808255809150509060018203906000526020600020016000909192909190916101000a81548173ffffffffffffffffffffffffffffffffffffffff021916908373ffffffffffffffffffffffffffffffffffffffff1602179055505060016007836040518082805190602001908083835b60208310151561201c5780518252602082019150602081019050602083039250611ff7565b6001836020036101000a038019825116818451168082178552505050505050905001915050908152602001604051809103902060010160146101000a81548160ff0219169083151502179055505050565b6000600360009054906101000a900473ffffffffffffffffffffffffffffffffffffffff1673ffffffffffffffffffffffffffffffffffffffff163373ffffffffffffffffffffffffffffffffffffffff161415156120cb57600080fd5b600360149054906101000a900460ff161515156120e757600080fd5b6120fc826001546142e190919063ffffffff16565b600181905550612153826000808673ffffffffffffffffffffffffffffffffffffffff1673ffffffffffffffffffffffffffffffffffffffff168152602001908152602001600020546142e190919063ffffffff16565b6000808573ffffffffffffffffffffffffffffffffffffffff1673ffffffffffffffffffffffffffffffffffffffff168152602001908152602001600020819055508273ffffffffffffffffffffffffffffffffffffffff167f0f6798a560793a54c3bcfe86a93cde1e73087d944c0ea20544137d4121396885836040518082815260200191505060405180910390a28273ffffffffffffffffffffffffffffffffffffffff16600073ffffffffffffffffffffffffffffffffffffffff167fddf252ad1be2c89b69c2b068fc378daa952ba7f163c4a11628f55a4df523b3ef846040518082815260200191505060405180910390a36001905092915050565b60011515600960003373ffffffffffffffffffffffffffffffffffffffff1673ffffffffffffffffffffffffffffffffffffffff16815260200190815260200160002060009054906101000a900460ff1615151415156122b257600080fd5b600115156008836040518082805190602001908083835b6020831015156122ee57805182526020820191506020810190506020830392506122c9565b6001836020036101000a038019825116818451168082178552505050505050905001915050908152602001604051809103902060020160009054906101000a900460ff16151514151561234057600080fd5b600115156007836040518082805190602001908083835b60208310151561237c5780518252602082019150602081019050602083039250612357565b6001836020036101000a038019825116818451168082178552505050505050905001915050908152602001604051809103902060010160149054906101000a900460ff1615151415156123ce57600080fd5b6008826040518082805190602001908083835b60208310151561240657805182526020820191506020810190506020830392506123e1565b6001836020036101000a03801982511681845116808217855250505050505090500191505090815260200160405180910390206001018190806001815401808255809150509060018203906000526020600020016000909192909190916101000a81548173ffffffffffffffffffffffffffffffffffffffff021916908373ffffffffffffffffffffffffffffffffffffffff1602179055505060006007836040518082805190602001908083835b6020831015156124da57805182526020820191506020810190506020830392506124b5565b6001836020036101000a038019825116818451168082178552505050505050905001915050908152602001604051809103902060010160146101000a81548160ff0219169083151502179055505050565b60011515600960003373ffffffffffffffffffffffffffffffffffffffff1673ffffffffffffffffffffffffffffffffffffffff16815260200190815260200160002060009054906101000a900460ff16151514151561258a57600080fd5b6008826040518082805190602001908083835b6020831015156125c2578051825260208201915060208101905060208303925061259d565b6001836020036101000a03801982511681845116808217855250505050505090500191505090815260200160405180910390206003018190806001815401808255809150509060018203906000526020600020016000909192909190915090600019169055505050565b60096020528060005260406000206000915054906101000a900460ff1681565b600080600260003373ffffffffffffffffffffffffffffffffffffffff1673ffffffffffffffffffffffffffffffffffffffff16815260200190815260200160002060008573ffffffffffffffffffffffffffffffffffffffff1673ffffffffffffffffffffffffffffffffffffffff168152602001908152602001600020549050808310151561275e576000600260003373ffffffffffffffffffffffffffffffffffffffff1673ffffffffffffffffffffffffffffffffffffffff16815260200190815260200160002060008673ffffffffffffffffffffffffffffffffffffffff1673ffffffffffffffffffffffffffffffffffffffff168152602001908152602001600020819055506127f2565b61277183826142c890919063ffffffff16565b600260003373ffffffffffffffffffffffffffffffffffffffff1673ffffffffffffffffffffffffffffffffffffffff16815260200190815260200160002060008673ffffffffffffffffffffffffffffffffffffffff1673ffffffffffffffffffffffffffffffffffffffff168152602001908152602001600020819055505b8373ffffffffffffffffffffffffffffffffffffffff163373ffffffffffffffffffffffffffffffffffffffff167f8c5be1e5ebec7d5bd14f71427d1e84f3dd0314c0f7b2291e5b200ac8c7c3b925600260003373ffffffffffffffffffffffffffffffffffffffff1673ffffffffffffffffffffffffffffffffffffffff16815260200190815260200160002060008873ffffffffffffffffffffffffffffffffffffffff1673ffffffffffffffffffffffffffffffffffffffff168152602001908152602001600020546040518082815260200191505060405180910390a3600191505092915050565b60008060008373ffffffffffffffffffffffffffffffffffffffff1673ffffffffffffffffffffffffffffffffffffffff168152602001908152602001600020549050919050565b600360009054906101000a900473ffffffffffffffffffffffffffffffffffffffff1673ffffffffffffffffffffffffffffffffffffffff163373ffffffffffffffffffffffffffffffffffffffff1614151561298257600080fd5b600360009054906101000a900473ffffffffffffffffffffffffffffffffffffffff1673ffffffffffffffffffffffffffffffffffffffff167ff8df31144d9c2f0f6b59d69b8b98abd5459d07f2742c4df920b25aae33c6482060405160405180910390a26000600360006101000a81548173ffffffffffffffffffffffffffffffffffffffff021916908373ffffffffffffffffffffffffffffffffffffffff160217905550565b3373ffffffffffffffffffffffffffffffffffffffff166007846040518082805190602001908083835b602083101515612a7a5780518252602082019150602081019050602083039250612a55565b6001836020036101000a038019825116818451168082178552505050505050905001915050908152602001604051809103902060010160009054906101000a900473ffffffffffffffffffffffffffffffffffffffff1673ffffffffffffffffffffffffffffffffffffffff16141515612af357600080fd5b600115156007846040518082805190602001908083835b602083101515612b2f5780518252602082019150602081019050602083039250612b0a565b6001836020036101000a038019825116818451168082178552505050505050905001915050908152602001604051809103902060010160149054906101000a900460ff161515141515612b8157600080fd5b600115156007836040518082805190602001908083835b602083101515612bbd5780518252602082019150602081019050602083039250612b98565b6001836020036101000a038019825116818451168082178552505050505050905001915050908152602001604051809103902060010160149054906101000a900460ff161515141515612c0f57600080fd5b806007846040518082805190602001908083835b602083101515612c485780518252602082019150602081019050602083039250612c23565b6001836020036101000a038019825116818451168082178552505050505050905001915050908152602001604051809103902060010160006101000a81548173ffffffffffffffffffffffffffffffffffffffff021916908373ffffffffffffffffffffffffffffffffffffffff160217905550336007836040518082805190602001908083835b602083101515612cf55780518252602082019150602081019050602083039250612cd0565b6001836020036101000a038019825116818451168082178552505050505050905001915050908152602001604051809103902060010160006101000a81548173ffffffffffffffffffffffffffffffffffffffff021916908373ffffffffffffffffffffffffffffffffffffffff160217905550826008846040518082805190602001908083835b602083101515612da25780518252602082019150602081019050602083039250612d7d565b6001836020036101000a03801982511681845116808217855250505050505090500191505090815260200160405180910390206000019080519060200190612deb9291906145d6565b506008836040518082805190602001908083835b602083101515612e245780518252602082019150602081019050602083039250612dff565b6001836020036101000a03801982511681845116808217855250505050505090500191505090815260200160405180910390206001018190806001815401808255809150509060018203906000526020600020016000909192909190916101000a81548173ffffffffffffffffffffffffffffffffffffffff021916908373ffffffffffffffffffffffffffffffffffffffff1602179055505060016008846040518082805190602001908083835b602083101515612ef85780518252602082019150602081019050602083039250612ed3565b6001836020036101000a038019825116818451168082178552505050505050905001915050908152602001604051809103902060020160006101000a81548160ff021916908315150217905550826008836040518082805190602001908083835b602083101515612f7e5780518252602082019150602081019050602083039250612f59565b6001836020036101000a03801982511681845116808217855250505050505090500191505090815260200160405180910390206000019080519060200190612fc79291906145d6565b506008826040518082805190602001908083835b6020831015156130005780518252602082019150602081019050602083039250612fdb565b6001836020036101000a03801982511681845116808217855250505050505090500191505090815260200160405180910390206001013390806001815401808255809150509060018203906000526020600020016000909192909190916101000a81548173ffffffffffffffffffffffffffffffffffffffff021916908373ffffffffffffffffffffffffffffffffffffffff1602179055505060016008846040518082805190602001908083835b6020831015156130d457805182526020820191506020810190506020830392506130af565b6001836020036101000a038019825116818451168082178552505050505050905001915050908152602001604051809103902060020160006101000a81548160ff021916908315150217905550505050565b6000600360009054906101000a900473ffffffffffffffffffffffffffffffffffffffff1673ffffffffffffffffffffffffffffffffffffffff163373ffffffffffffffffffffffffffffffffffffffff1614151561318457600080fd5b600360149054906101000a900460ff161515156131a057600080fd5b6001600360146101000a81548160ff0219169083151502179055507fae5184fba832cb2b1f702aca6117b8d265eaf03ad33eb133f19dde0f5920fa0860405160405180910390a16001905090565b600a60009054906101000a900473ffffffffffffffffffffffffffffffffffffffff1681565b6040805190810160405280600281526020017f525200000000000000000000000000000000000000000000000000000000000081525081565b6000600580549050905090565b60008060003373ffffffffffffffffffffffffffffffffffffffff1673ffffffffffffffffffffffffffffffffffffffff1681526020019081526020016000205482111515156132a957600080fd5b600073ffffffffffffffffffffffffffffffffffffffff168373ffffffffffffffffffffffffffffffffffffffff16141515156132e557600080fd5b613336826000803373ffffffffffffffffffffffffffffffffffffffff1673ffffffffffffffffffffffffffffffffffffffff168152602001908152602001600020546142c890919063ffffffff16565b6000803373ffffffffffffffffffffffffffffffffffffffff1673ffffffffffffffffffffffffffffffffffffffff168152602001908152602001600020819055506133c9826000808673ffffffffffffffffffffffffffffffffffffffff1673ffffffffffffffffffffffffffffffffffffffff168152602001908152602001600020546142e190919063ffffffff16565b6000808573ffffffffffffffffffffffffffffffffffffffff1673ffffffffffffffffffffffffffffffffffffffff168152602001908152602001600020819055508273ffffffffffffffffffffffffffffffffffffffff163373ffffffffffffffffffffffffffffffffffffffff167fddf252ad1be2c89b69c2b068fc378daa952ba7f163c4a11628f55a4df523b3ef846040518082815260200191505060405180910390a36001905092915050565b613482614656565b61348a614699565b60011515600960003373ffffffffffffffffffffffffffffffffffffffff1673ffffffffffffffffffffffffffffffffffffffff16815260200190815260200160002060009054906101000a900460ff1615151415156134e957600080fd5b600015156008856040518082805190602001908083835b6020831015156135255780518252602082019150602081019050602083039250613500565b6001836020036101000a038019825116818451168082178552505050505050905001915050908152602001604051809103902060020160009054906101000a900460ff16151514151561357757600080fd5b6080604051908101604052808581526020018473ffffffffffffffffffffffffffffffffffffffff16815260200160011515815260200160011515815250915060408051908101604052808581526020018473ffffffffffffffffffffffffffffffffffffffff168152509050816007856040518082805190602001908083835b60208310151561361d57805182526020820191506020810190506020830392506135f8565b6001836020036101000a0380198251168184511680821785525050505050509050019150509081526020016040518091039020600082015181600001908051906020019061366c929190614556565b5060208201518160010160006101000a81548173ffffffffffffffffffffffffffffffffffffffff021916908373ffffffffffffffffffffffffffffffffffffffff16021790555060408201518160010160146101000a81548160ff02191690831515021790555060608201518160010160156101000a81548160ff021916908315150217905550905050836008856040518082805190602001908083835b602083101515613730578051825260208201915060208101905060208303925061370b565b6001836020036101000a038019825116818451168082178552505050505050905001915050908152602001604051809103902060000190805190602001906137799291906145d6565b506008846040518082805190602001908083835b6020831015156137b2578051825260208201915060208101905060208303925061378d565b6001836020036101000a03801982511681845116808217855250505050505090500191505090815260200160405180910390206001018390806001815401808255809150509060018203906000526020600020016000909192909190916101000a81548173ffffffffffffffffffffffffffffffffffffffff021916908373ffffffffffffffffffffffffffffffffffffffff1602179055505060016008856040518082805190602001908083835b6020831015156138865780518252602082019150602081019050602083039250613861565b6001836020036101000a038019825116818451168082178552505050505050905001915050908152602001604051809103902060020160006101000a81548160ff02191690831515021790555060006007856040518082805190602001908083835b60208310151561390d57805182526020820191506020810190506020830392506138e8565b6001836020036101000a038019825116818451168082178552505050505050905001915050908152602001604051809103902060010160156101000a81548160ff02191690831515021790555060058490806001815401808255809150509060018203906000526020600020016000909192909190915090805190602001906139979291906145d6565b50506006819080600181540180825580915050906001820390600052602060002090600202016000909192909190915060008201518160000190805190602001906139e3929190614556565b5060208201518160010160006101000a81548173ffffffffffffffffffffffffffffffffffffffff021916908373ffffffffffffffffffffffffffffffffffffffff16021790555050505050505050565b6060600115156008836040518082805190602001908083835b602083101515613a725780518252602082019150602081019050602083039250613a4d565b6001836020036101000a038019825116818451168082178552505050505050905001915050908152602001604051809103902060020160009054906101000a900460ff161515141515613ac457600080fd5b6008826040518082805190602001908083835b602083101515613afc5780518252602082019150602081019050602083039250613ad7565b6001836020036101000a0380198251168184511680821785525050505050509050019150509081526020016040518091039020600101805480602002602001604051908101604052809291908181526020018280548015613bb257602002820191906000526020600020905b8160009054906101000a900473ffffffffffffffffffffffffffffffffffffffff1673ffffffffffffffffffffffffffffffffffffffff1681526020019060010190808311613b68575b50505050509050919050565b6000613c4f82600260003373ffffffffffffffffffffffffffffffffffffffff1673ffffffffffffffffffffffffffffffffffffffff16815260200190815260200160002060008673ffffffffffffffffffffffffffffffffffffffff1673ffffffffffffffffffffffffffffffffffffffff168152602001908152602001600020546142e190919063ffffffff16565b600260003373ffffffffffffffffffffffffffffffffffffffff1673ffffffffffffffffffffffffffffffffffffffff16815260200190815260200160002060008573ffffffffffffffffffffffffffffffffffffffff1673ffffffffffffffffffffffffffffffffffffffff168152602001908152602001600020819055508273ffffffffffffffffffffffffffffffffffffffff163373ffffffffffffffffffffffffffffffffffffffff167f8c5be1e5ebec7d5bd14f71427d1e84f3dd0314c0f7b2291e5b200ac8c7c3b925600260003373ffffffffffffffffffffffffffffffffffffffff1673ffffffffffffffffffffffffffffffffffffffff16815260200190815260200160002060008773ffffffffffffffffffffffffffffffffffffffff1673ffffffffffffffffffffffffffffffffffffffff168152602001908152602001600020546040518082815260200191505060405180910390a36001905092915050565b6000600260008473ffffffffffffffffffffffffffffffffffffffff1673ffffffffffffffffffffffffffffffffffffffff16815260200190815260200160002060008373ffffffffffffffffffffffffffffffffffffffff1673ffffffffffffffffffffffffffffffffffffffff16815260200190815260200160002054905092915050565b6000600a60009054906101000a900473ffffffffffffffffffffffffffffffffffffffff1673ffffffffffffffffffffffffffffffffffffffff163373ffffffffffffffffffffffffffffffffffffffff16141515613e9f57600080fd5b60011515600960008473ffffffffffffffffffffffffffffffffffffffff1673ffffffffffffffffffffffffffffffffffffffff16815260200190815260200160002060009054906101000a900460ff161515141515613efe57600080fd5b6000600960008473ffffffffffffffffffffffffffffffffffffffff1673ffffffffffffffffffffffffffffffffffffffff16815260200190815260200160002060006101000a81548160ff021916908315150217905550600090505b600480549050811015614133578173ffffffffffffffffffffffffffffffffffffffff16600482815481101515613f8e57fe5b906000526020600020906002020160010160009054906101000a900473ffffffffffffffffffffffffffffffffffffffff1673ffffffffffffffffffffffffffffffffffffffff161415614126576004600160048054905003815481101515613ff357fe5b906000526020600020906002020160048281548110151561401057fe5b9060005260206000209060020201600082018160000190805460018160011615610100020316600290046140459291906143f9565b506001820160009054906101000a900473ffffffffffffffffffffffffffffffffffffffff168160010160006101000a81548173ffffffffffffffffffffffffffffffffffffffff021916908373ffffffffffffffffffffffffffffffffffffffff16021790555090505060046001600480549050038154811015156140c757fe5b9060005260206000209060020201600080820160006140e69190614480565b6001820160006101000a81549073ffffffffffffffffffffffffffffffffffffffff02191690555050600480548091906001900361412491906146c9565b505b8080600101915050613f5b565b5050565b600360009054906101000a900473ffffffffffffffffffffffffffffffffffffffff1673ffffffffffffffffffffffffffffffffffffffff163373ffffffffffffffffffffffffffffffffffffffff1614151561419357600080fd5b61419c816142fd565b50565b606060011515600960003373ffffffffffffffffffffffffffffffffffffffff1673ffffffffffffffffffffffffffffffffffffffff16815260200190815260200160002060009054906101000a900460ff16151514151561420057600080fd5b6008826040518082805190602001908083835b6020831015156142385780518252602082019150602081019050602083039250614213565b6001836020036101000a03801982511681845116808217855250505050505090500191505090815260200160405180910390206003018054806020026020016040519081016040528092919081815260200182805480156142bc57602002820191906000526020600020905b815460001916815260200190600101908083116142a4575b50505050509050919050565b60008282111515156142d657fe5b818303905092915050565b600081830190508281101515156142f457fe5b80905092915050565b600073ffffffffffffffffffffffffffffffffffffffff168173ffffffffffffffffffffffffffffffffffffffff161415151561433957600080fd5b8073ffffffffffffffffffffffffffffffffffffffff16600360009054906101000a900473ffffffffffffffffffffffffffffffffffffffff1673ffffffffffffffffffffffffffffffffffffffff167f8be0079c531659141344cd1fd0a4f28419497f9722a3daafe3b4186f6b6457e060405160405180910390a380600360006101000a81548173ffffffffffffffffffffffffffffffffffffffff021916908373ffffffffffffffffffffffffffffffffffffffff16021790555050565b828054600181600116156101000203166002900490600052602060002090601f016020900481019282601f10614432578054855561446f565b8280016001018555821561446f57600052602060002091601f016020900482015b8281111561446e578254825591600101919060010190614453565b5b50905061447c91906146fb565b5090565b50805460018160011615610100020316600290046000825580601f106144a657506144c5565b601f0160209004906000526020600020908101906144c491906146fb565b5b50565b8154818355818111156144f5576002028160020283600052602060002091820191016144f49190614720565b5b505050565b815481835581811115614521578183600052602060002091820191016145209190614776565b5b505050565b604080519081016040528060608152602001600073ffffffffffffffffffffffffffffffffffffffff1681525090565b828054600181600116156101000203166002900490600052602060002090601f016020900481019282601f1061459757805160ff19168380011785556145c5565b828001600101855582156145c5579182015b828111156145c45782518255916020019190600101906145a9565b5b5090506145d291906146fb565b5090565b828054600181600116156101000203166002900490600052602060002090601f016020900481019282601f1061461757805160ff1916838001178555614645565b82800160010185558215614645579182015b82811115614644578251825591602001919060010190614629565b5b50905061465291906146fb565b5090565b60806040519081016040528060608152602001600073ffffffffffffffffffffffffffffffffffffffff1681526020016000151581526020016000151581525090565b604080519081016040528060608152602001600073ffffffffffffffffffffffffffffffffffffffff1681525090565b8154818355818111156146f6576002028160020283600052602060002091820191016146f591906147a2565b5b505050565b61471d91905b80821115614719576000816000905550600101614701565b5090565b90565b61477391905b8082111561476f576000808201600061473f9190614480565b6001820160006101000a81549073ffffffffffffffffffffffffffffffffffffffff021916905550600201614726565b5090565b90565b61479f91905b8082111561479b57600081816147929190614480565b5060010161477c565b5090565b90565b6147f591905b808211156147f157600080820160006147c19190614480565b6001820160006101000a81549073ffffffffffffffffffffffffffffffffffffffff0219169055506002016147a8565b5090565b905600a165627a7a7230582030a5a907ce1a4ede0e2d7afe56375c19a8e96ff98d44f46f317b6b8f692816400029",
  "source": "pragma solidity ^0.4.23;\n//pragma experimental ABIEncoderV2;\n\nimport \"../client/node_modules/zeppelin-solidity/contracts/token/ERC20/MintableToken.sol\";\n\ncontract Library is MintableToken{\n\n    string public constant name = \"Library Token\";\n    string public constant symbol = \"RR\";\n    uint8 public constant decimals = 18;\n\n    struct Librarian {\n        string libName;\n        address libAddress;\n    }\n\n    struct Book {\n        string bookName;\n        address bookOwner;\n        bool checkedIn;\n        bool exists;\n    }\n\n    struct AllCurrentBooks {\n      string bookName;\n      address bookOwner;\n    }\n\n\n    struct BookHistory {\n        string name;\n        address [] adr;\n        bool validBook;\n        bytes32 [] damageRepair;\n    }\n\n\n   Librarian[] public librarians;\n   string [] totalBooks;\n   AllCurrentBooks [] public allCurrentBooks;\n\n   mapping(string => Book) books;\n   mapping(string => BookHistory) bookHistory;\n   mapping (address => bool) public mapLibrarian;\n\n   address public owner;\n\n    constructor () public {\n        owner = msg.sender;\n    }\n\n\n    function addLibrarian (string libName, address libAddress) public {\n        require(msg.sender == owner);\n        Librarian memory newLibrarian = Librarian({\n           libName: libName,\n           libAddress: libAddress\n        });\n\n        librarians.push(newLibrarian);\n        mapLibrarian[libAddress] = true;\n    }\n\n    function removeLibrarian(address libAddress) public {\n        require(msg.sender == owner);\n        require(mapLibrarian[libAddress] == true);\n        mapLibrarian[libAddress] = false;\n        for(uint i=0; i<librarians.length; i++) {\n            if(librarians[i].libAddress == libAddress) {\n                librarians[i] = librarians[librarians.length-1];\n                delete librarians[librarians.length-1];\n                librarians.length--;\n            }\n        }\n    }\n\n    function addBook(string bookName, address bookOwner) public {\n        require(mapLibrarian[msg.sender] == true);\n        require(bookHistory[bookName].validBook == false);\n        Book memory newBook = Book({\n            bookName: bookName,\n            bookOwner: bookOwner,\n            checkedIn: true,\n            exists: true\n        });\n        AllCurrentBooks memory bookN = AllCurrentBooks({\n          bookName: bookName,\n          bookOwner: bookOwner\n          });\n        books[bookName] = newBook;\n        bookHistory[bookName].name = bookName;\n        bookHistory[bookName].adr.push(bookOwner);\n        bookHistory[bookName].validBook = true;\n        books[bookName].exists = false;\n        totalBooks.push(bookName);\n        allCurrentBooks.push(bookN);\n    }\n\n    function removeBook(string bookName, address bookOwner) public {\n         require(mapLibrarian[msg.sender] == true);\n         require(bookHistory[bookName].validBook == true);\n         require(books[bookName].checkedIn == true);\n          books[bookName].checkedIn = false;\n          bookHistory[bookName].validBook = false;\n          books[bookName].exists = false;\n         for(uint i=0; i<allCurrentBooks.length; i++) {\n              if(allCurrentBooks[i].bookOwner == bookOwner) {\n                  allCurrentBooks[i] = allCurrentBooks[allCurrentBooks.length-1];\n                  delete allCurrentBooks[allCurrentBooks.length-1];\n                  allCurrentBooks.length--;\n                  totalBooks.length--;\n              }\n          }\n      }\n\n  function showTotalBooks() public view returns (uint) {\n      return totalBooks.length;\n   }\n\n    function checkInBook(string bookName) public {\n        require(bookHistory[bookName].validBook == true);\n        require(books[bookName].checkedIn == false);\n        uint length = bookHistory[bookName].adr.length;\n        require(bookHistory[bookName].adr[length - 1] == msg.sender);\n        bookHistory[bookName].adr.push(msg.sender);\n        books[bookName].checkedIn = true;\n    }\n\n    function checkOutBook(string bookName, address checkOutAddress) public {\n        require(mapLibrarian[msg.sender] == true);\n        require(bookHistory[bookName].validBook == true);\n        require(books[bookName].checkedIn == true);\n        bookHistory[bookName].adr.push(checkOutAddress);\n        books[bookName].checkedIn = false;\n\n    }\n\n    function tradeBook(string tradeInBook, string tradeWithBook, address newOwner) public {\n        require(books[tradeInBook].bookOwner == msg.sender);\n        require(books[tradeInBook].checkedIn == true);\n        require(books[tradeWithBook].checkedIn == true);\n        books[tradeInBook].bookOwner = newOwner;\n        books[tradeWithBook].bookOwner = msg.sender;\n        bookHistory[tradeInBook].name = tradeInBook;\n        bookHistory[tradeInBook].adr.push(newOwner);\n        bookHistory[tradeInBook].validBook = true;\n        bookHistory[tradeWithBook].name = tradeInBook;\n        bookHistory[tradeWithBook].adr.push(msg.sender);\n        bookHistory[tradeInBook].validBook = true;\n    }\n\n     function addDamageRepairHistory (string bookName, bytes32 data) public {\n        require(mapLibrarian[msg.sender] == true);\n        bookHistory[bookName].damageRepair.push(data);\n    }\n\n    function showDamageRepairHistory (string bookName) public view returns (bytes32 []) {\n        require(mapLibrarian[msg.sender] == true);\n        return bookHistory[bookName].damageRepair;\n    }\n\n    function trackBookHistory(string bookName) public view returns (address []) {\n\n        require(bookHistory[bookName].validBook == true);\n        return bookHistory[bookName].adr;\n\n    }\n\n}\n",
  "sourcePath": "/Users/Rwc/Desktop/Rachna Programming/solidity/library/contracts/Library.sol",
  "compiler": {
    "name": "solc",
    "version": "0.4.23+commit.124ca40d.Emscripten.clang"
  },
  "schemaVersion": "2.0.0",
  "updatedAt": "2018-09-04T09:00:44.106Z"
}